:020000040800F2
:10000000A00700202D4A0008354A0008374A00089A
:1000100000000000000000000000000000000000E0
:10002000000000000000000000000000394A000845
:1000300000000000000000003B4A00083D4A0008A4
:100040003F4A00083F4A00083F4A00083F4A00086C
:100050003F4A00083F4A00083F4A00083F4A00085C
:10006000000000003F4A00083F4A00083F4A0008DD
:10007000E50D0008511200083F4A00083F4A0008F9
:10008000AF11000800000000000000003F4A000817
:10009000000000003F4A00083F4A00083F4A0008AD
:1000A000000000003F4A000800000000351A000868
:1000B00000F002F800F040F80CA030C8083824180E
:1000C0002D18A246671EAB4654465D46AC4201D190
:1000D00000F032F87E460F3E0FCCB6460126334282
:1000E00000D0FB1AA246AB463343184770500000BD
:1000F00090500000103A02D378C878C1FAD852075D
:1001000001D330C830C101D504680C6070470000CD
:100110000023002400250026103A01D378C1FBD823
:10012000520700D330C100D50B6070471FB5C046E1
:10013000C0461FBD10B510BD04F0D0FF1146FFF73B
:10014000F5FF02F093F804F0E8FF03B4FFF7F2FFC5
:1001500003BC04F0EDFF000010B5012103204004B2
:1001600002F0AAFE0120C003F649086001200871D0
:100170004871002088710220C8710920C00602F071
:100180006FFB0820EF4908600120087148710020CA
:1001900088710220C871EC4802F062FB3020E94906
:1001A000086000200871012048710020887101203A
:1001B000C871E54802F054FB10BD10B501210220C2
:1001C00002F096FE0121C80202F084FE0020DF4901
:1001D000088148807C204860DD48088000208872C3
:1001E000DC4802F04DFF01221146DA4803F0C0FB63
:1001F0001020D949087000204870012088700846F6
:1002000004F0E6F8102002F0D7FAFF200130CD49C3
:1002100008600220087103204871002088710220C4
:10022000C8710920C00602F01BFBCC49CC4800680D
:1002300004F00CFD401ECB4908800988491E8A0045
:1002400088180A2104F002FDC74908806320BF49CD
:10025000088000204880C34800884860002008814A
:100260008872C24802F00CFF01221146BF4803F019
:100270007FFB0D20B849087001204870887008463F
:1002800004F0A6F80D2002F097FA7020B849088013
:100290000120488004208880B348008888600220BC
:1002A00088810020C881FF20013008820020488218
:1002B000AE4802F0A1FF0121A64802F066FF01212D
:1002C000AA4802F062FF022208210920C00602F0BB
:1002D00048FB10BD70B504460D46642060430146DE
:1002E0009F48006804F0B2FC401E9E4908800988BF
:1002F000491E69430846642104F0A8FC9A49088015
:100300009848008891494860984802F0B9FE96489C
:10031000008897498860954802F06EFF70BD10B55F
:100320000121924802F057FF10BD10B500218F48FF
:1003300002F051FF10BD10B50C2082490860022068
:10034000087103204871002088710120C8710920BC
:10035000C00602F085FA0121880302F0BBFDFF20F0
:100360002D3084490860002048608860C86048617A
:100370000C200861804803F08FFD01227F497E48F0
:1003800003F0B6FF1B20744908700220487001205A
:100390008870084604F01CF80121774803F013FE2A
:1003A000012202210920C00602F0DBFA012203210A
:1003B0000920C00602F0D5FA10BD10B5044621464A
:1003C0006D4803F0B7FE00BF40216B4803F0C4FF47
:1003D0000028F9D010BD10B5C0205A49086002208D
:1003E000087101204871C8718871574802F038FAC5
:1003F0000121480502F07CFD0020614948618861C7
:1004000048608860C86008615E4808605E4804F023
:1004100052F801215C4804F08BF8012206214A4879
:1004200002F09FFA01220721474802F09AFA10BD14
:10043000F8B504460E46154600BF0121C9035248CF
:1004400004F032FA0128F8D001204003C30201224F
:10045000214600904C4804F083F900BF02214A482D
:1004600004F022FA0028F9D03146474804F00CFA8B
:1004700000BF8021444804F017FA0028F9D000207A
:1004800001235B060122214600903F4804F068F9F1
:1004900000BF02213C4804F007FA0028F9D02946A1
:1004A000394804F0F1F900BF2021374804F0FCF985
:1004B0000028F9D02021344804F004FA022004F086
:1004C00074FAF8BDF8B504460D4601204003002338
:1004D0000122214600902C4804F042F900BF02217D
:1004E000294804F0E1F90028F9D02946264804F00B
:1004F000CBF900BF4021244804F0D6F90028F9D0F8
:100500000920800201235B060122214600901E483B
:1005100004F026F900BF04211B4804F0C5F90028A7
:10052000F9D0194804F0B2F9064600BF2021164858
:1005300004F0BAF90028F9D02021134804F0C2F9D8
:100540003046F8BD2800002000040048D4000020F8
:10055000CD95000000040040300000203057050019
:10056000A80000200400002006000020002C01400C
:10057000E0000020BC00002000380140050105001B
:100580000C0100202B1D20000054004010B533202A
:10059000FE4908600320087101204871002088711D
:1005A000C8710920C00602F05BF90220F749086013
:1005B000032008710120487100208871C871F44837
:1005C00002F04EF90121480202F084FC0020F149BA
:1005D0000871086188600820086000204861EE48C2
:1005E00003F0DCFA0421EC4803F031FC0122042181
:1005F000E94803F0FAFB0C20E84908700320487032
:1006000001208870084603F0E3FE07220121E2483A
:1006100003F076FB07220221DF4803F071FB07227B
:100620001021DD4803F06CFB07222021DA4803F09B
:1006300067FB072201214902D74803F061FB012132
:10064000D54803F0C7FA00BF0121D34803F0D7FB18
:100650000028F9D0D04803F0ABFB10BD10B5002145
:10066000A020FFF72FFFCE49087008460078002829
:100670000CD008460078012808D0084600780228E7
:1006800004D000221146A020FFF7D2FEC448007813
:10069000022817D10621A020FFF714FFC1490860E6
:1006A0000721A020FFF70EFF0002BE49096840188D
:1006B000BC49086008460068BB49884202D3002054
:1006C000B849086010BD10B5B84804F00DF9032012
:1006D00004F00DF9B64804F00DF904F00EF904F039
:1006E00013F910BD10B5B34909788811C10F091865
:1006F00049104900411A08D0AE480078402188438B
:10070000AC4908707120FFF758FEAB488078AB49C0
:10071000897888420AD0A9488078A74988705220F1
:10072000FFF74BFEA4498878FFF747FEA2484078C0
:10073000A249497888420AD0A04840789E4948702A
:100740004620FFF73AFE9C494878FFF736FE9A4864
:1007500000789A49097888420AD0984800789649E2
:1007600008704520FFF729FE93490878FFF725FE1A
:100770009148C0789149C97888420AD08F48C0789A
:100780008D49C8705420FFF718FE8B49C878FFF7D1
:1007900014FE7F4A128A5011864A12785111CA0FEC
:1007A0005218521052008A1AC30F1B185B105B00BC
:1007B000C31A01D1012300E000239A421BD07449DF
:1007C000098A4811C10F091849104900411A09D175
:1007D0007848007820210843764908704320FFF7C5
:1007E000ECFD08E0734800782021884371490870C7
:1007F0006320FFF7E2FD10BD10B56E49097888113E
:10080000C10F091849104900411A08D069480078F9
:1008100040218843674908707120FFF7CEFD5220C0
:10082000FFF7CBFD65498878FFF7C7FD4620FFF746
:10083000C4FD62494878FFF7C0FD4520FFF7BDFDC4
:100840005E490878FFF7B9FD5420FFF7B6FD5B4914
:10085000C878FFF7B2FD57494878C10F0918491009
:100860004900411A03D05A20FFF7A7FD1EE0514965
:100870004878C10F091849104900411A07D1504959
:100880000978012903D17A20FFF797FD0EE0494945
:100890004878C10F091849104900411A06D1494941
:1008A0000978002902D17420FFF787FD3849098AA9
:1008B0004811C10F091849104900411A03D14320BA
:1008C000FFF77BFD02E06320FFF777FD3049098ADF
:1008D000C810C10F091849104900411A012903D154
:1008E0004820FFF76AFD02E06820FFF766FD10BDB3
:1008F00010B5304A5278D010254A128A1111CA0F09
:100900005218521052008A1A01D1012200E000222E
:10091000C30F1B185B105B00C31A9A421BD01C4903
:10092000098A0811C10F091849104900411A06D156
:1009300020484078082108431E49487005E01D48BA
:100940004078082188431B4948701A480078802164
:100950000843184908700E49098A0811C10F09187F
:1009600049104900411A47D112490978C811C10FED
:10097000091849104900411A28D00E4800788021F2
:1009800088430C49087044201EE000002800002025
:1009900000040048F4000020002401403000002042
:1009A0003A00002058000020760200005555000053
:1009B00024F40000000000208700002083000020B5
:1009C0003C0000203B000020FFF7F7FCF6480068E1
:1009D000401CF5490860084600681E2827D30020FF
:1009E0000860F248007801210843F04908700020AF
:1009F000EF4A106050601AE0EC490978C811C10F45
:100A0000091849104900411A08D0E84800788021A7
:100A10008843E64908706420FFF7CFFC0020E249D4
:100A20000860E248007840084000E049087010BDC6
:100A3000E04AD2788A420FDC0922D206928A012348
:100A4000DB031A430923DB069A820122DA4B1A7070
:100A50000022DA4B1A7058E0D64AD278824233DA52
:100A6000D44AD2788A422FDDD44A1278012A1AD188
:100A7000D34B1B8A5A11D30F9B185B105B00D31A00
:100A800004D10022CF4B1A70CF4B1A700922D20624
:100A9000928A0123DB039A430923DB069A82002210
:100AA000C54B1A7031E0C54A1278002A2DD10922AF
:100AB000D206928A0123DB031A430923DB069A82BA
:100AC0000122BD4B1A7020E0BA4AD27882421CDB68
:100AD000BB4B1B8A5A11D30F9B185B105B00D31AB8
:100AE00004D10022B74B1A70B74B1A700922D206F4
:100AF000928A0123DB039A430923DB069A820022B0
:100B0000AD4B1A700122AD4B1A70704710B50446F8
:100B1000230004F014FB0723050A0F14191E2300F9
:100B20006921A320FFF784FF19E06921A920FFF7BD
:100B30007FFF14E06921AF20FFF77AFF0FE0692102
:100B4000B420FFF775FF0AE06921B920FFF770FFB5
:100B500005E06921BE20FFF76BFF00E000BF00BF8A
:100B600010BD10B50920C006808A0121C9030843C1
:100B70000921C906888201208F4908709048808A1F
:100B8000082188438E49888200209049086009E145
:100B900086494878C10F091849104900411A1BD0ED
:100BA0000920C006808A0121C90388430921C9069A
:100BB00088820020804908708148808A0821884303
:100BC0007F4988825A20FFF7F8FB0120804908708E
:100BD000002080490860E5E0744909788810C10F59
:100BE000091849104900411AD1D0FFF781FE6F481A
:100BF0000078042188436D49087075480078012801
:100C000016D174480068401C7249086008460068A4
:100C1000C007C00F02D17A20FFF7CFFB6D480068F4
:100C2000F02804D300206A4908706A490860B7E0D8
:100C300069480068401C68490860644800680028EA
:100C400002D001285FD15FE0584949780811C10FEF
:100C5000091849104900411A09D06820FFF7ADFB77
:100C60005748808A08218843554988829BE009209B
:100C7000C006808A0121C90308430921C906888268
:100C800001204D490870544800683B283BD900209A
:100C90005149086051480068401C504908600846A6
:100CA0000068022816D3084600680E2812D84C485F
:100CB0000078002805D101220021A020FFF7B8FB11
:100CC00008E047480078012804D102220021A02032
:100CD000FFF7AEFB414800680F2814D30920C00677
:100CE000808A0121C90388430921C906888200201E
:100CF00031490870012035490860002037490860F3
:100D00003B20354908604AE00920C006808A01215D
:100D1000C90388430921C906888200202649087032
:100D20002248407810210843204948702A4800682A
:100D30003B2833D900202849086028480068401C17
:100D4000264908600846006800280CD0084600685C
:100D5000052808D81A48808A08210843184988823B
:100D60004820FFF72AFB1D48006806280CD31B48C3
:100D70000068092808D81248808A08218843104949
:100D800088826820FFF719FB144800680A2805D3F9
:100D900000200E4908601149086004E000BF00BF50
:100DA000FFF72AFDF4E610BD4000002000000020FF
:100DB000780000208300002033000020170000206E
:100DC0000004004880000020810000206400002012
:100DD0003B0000206C0000204C0000205000002050
:100DE0003A0000207CB50421FE4803F020F80028DA
:100DF0007ED00421FB4803F02AF8FB48007803006A
:100E000004F09DF90504111E2B384700F54802F047
:100E1000D4FF8010F54909684018F44908600120A2
:100E2000F149087036E0EF4802F0C7FF8010EF4943
:100E300049684018ED4948600220EB49087029E0F4
:100E4000E84802F0BAFF8010E84989684018E7498D
:100E500088600320E44908701CE0E24802F0ADFF1E
:100E60008010E249C9684018E049C8600420DE49A2
:100E700008700FE0DB4802F0A0FFDC490969401868
:100E8000DA4908610020D8490870D64802F08BFF83
:100E900000E000BF00BFD6480068401CD44908608D
:100EA000D449D348006803F0D1FE00297ED1D2484E
:100EB0000068401CD04908600A461268FA235A4369
:100EC0001146CA4A106803F0C1FEF5280AD8CA4A7A
:100ED0001268FA235A431146C44A106803F0B6FE5A
:100EE0000A280FD2C44A1268FA235A43114600E076
:100EF0005CE1BE4A106803F0A9FEC04908700020FA
:100F0000BF490870BC4A1268FA235A431146B74ACF
:100F1000506803F09BFEF5280AD8B74A1268FA23F6
:100F20005A431146B14A506803F090FE0A280DD288
:100F3000B14A1268FA235A431146AC4A506803F08A
:100F400085FEAE4948700020AE490870AA4A126872
:100F5000FA235A431146A54A906803F077FEF52814
:100F60000AD8A54A1268FA235A4311469F4A906844
:100F700003F06CFE0A280DD29F4A1268FA235A43E6
:100F800011469A4A906803F061FE9C4988700020DF
:100F90009D490870984A1268FA235A431146934AA9
:100FA000D06803F053FEF5280CD800E097E0924A91
:100FB0001268FA235A4311468C4AD06803F046FE61
:100FC0000A280DD28C4A1268FA235A431146874ADE
:100FD000D06803F03BFE8949C87000208B49087037
:100FE00082490869FA2103F031FE894908800846E0
:100FF000008803F027FF0546864A874B03F026FF4B
:101000000191009003F0D2FE8449087008460078F0
:10101000AA2812DA8248407804210843804948709F
:1010200008464078012108437D4948700846C07849
:10103000402108437A49C8704EE07949C97888113F
:10104000C10F091849104900411A34D0734800787B
:10105000AF280FDA7248407804210843704948707D
:1010600008464078012108436D49487000206D49C9
:10107000086031E06A49C978C811C10F09184910E0
:101080004900411A28D06648C078802188436449C5
:10109000C87064480068401C6249086008460068DF
:1010A000052819D1002008605D48C0784021884398
:1010B0005B49C87010E05A4840780221884358497B
:1010C00048700846407804218843554948700846CE
:1010D0004078400840004870002044490861444876
:1010E0000068514988425ED345480078022804DAF6
:1010F00043480078401C4249087041480078022863
:1011000006D13A490868494903F0A0FD3B490870F7
:101110003C480078022804DA3A480078401C3949F3
:10112000087038480078022806D1304948683F499D
:1011300003F08CFD3149487033480078022804DA06
:1011400031480078401C304908702F480078022848
:1011500006D126498868354903F078FD274988700B
:101160002A480078022804DA28480078401C2749D9
:10117000087026480078022806D11C49C8682B4907
:1011800003F064FD1D49C8700020194908601A4920
:101190000860002405E00020A100144A5050601CA3
:1011A000C4B2042CF7DB0F4802F002FE7CBD10B580
:1011B0001F48008AC007C00F47D01E480078401C57
:1011C0001C490870084600780A2838DB002008709F
:1011D0001348007804210843114908700846C07874
:1011E000802129E000240140820000202801002005
:1011F00018000020E20400001C00002083000020F2
:1012000020000020210000202200002023000020D8
:101210008C0000204C37894160E5D43F1600002047
:10122000000000207000002048E80100A8610000D4
:1012300000040040240000200843FE49C870FE4816
:10124000008A40084000FC49088203F056FB10BDAC
:1012500010B5FA48008AC007C00F75D0F54A9178DA
:10126000CA0F5218521052008A1A01D1012200E00E
:101270000022F04B1878C30F1B185B105B00C31AD9
:1012800001D1012300E000231A4206D0FFF74DF8F8
:101290000020EB4A10605060C5E3E94803684068ED
:1012A00000215A1C4841E6490A604860E14A117829
:1012B000CA0F5218521052008A1A46D0DD4A1278CC
:1012C000D010C20F121852105200821A3DD1DC48C1
:1012D000016840680A235940014306D10A21D948D0
:1012E000FEF7F8FFFFF71BF89DE3D548016840685B
:1012F00096235940014302D1FFF717F893E3D048F2
:1013000001684068FF2292325140014306D10A2110
:10131000CD48FEF7DFFFFFF702F884E3C848016815
:101320004068CA4A5140014302D1FEF7FEFF7AE30A
:10133000C348C74A0AC80020891A8341ACD3002198
:10134000BF4A116051606EE373E3BA498878C10FF8
:10135000091849104900411A9ED0B64989784810A9
:10136000C10F091849104900411A7AD0B149C8780B
:10137000C10F091849104900411A4BD0B048016803
:1013800040680A225140014306D10A21AE48FEF7C7
:10139000A1FFFEF7C4FF46E3A94801684068962311
:1013A0005940014302D1FEF7C0FF3CE3A448016865
:1013B0004068FF2392335940014306D10A21A248D5
:1013C000FEF788FFFEF7ABFF2DE39D4801684068FC
:1013D0009E4A5140014302D1FEF7A7FF23E39848FC
:1013E0004B23DB0006C80020C91A824186D39148EE
:1013F0008078400840008F49887008468078022134
:1014000088438C49887000218D4A11605160FEF735
:101410008CFF08E38A48016840680A235940014369
:1014200006D10A218B48FEF755FFFEF778FFFAE256
:1014300083480168406896235940014302D1FEF772
:1014400074FFF0E27E4801684068FF239233594000
:10145000014307D10A217C48FEF73CFFFEF75FFFFE
:10146000E1E225E0764801684068784B5940014345
:1014700002D1FEF75AFFD6E271484B21C90003683A
:1014800042680020591A824185D36A488078400812
:101490004000684988700846807802218843654981
:1014A00088700020664A10605060FEF73EFFBAE286
:1014B000604989788810C10F091849104900411AFC
:1014C0007AD05C49C9784810C10F09184910490001
:1014D000411A4AD05A48016840680A2359400143DA
:1014E00006D10A215848FEF7F5FEFEF718FF9AE2EA
:1014F00053480168406896235940014302D1FEF7E2
:1015000014FF90E24E4903C9FF2392335840084329
:1015100006D10A214C48FEF7DDFEFEF700FF82E20D
:10152000474801684068494B5940014302D1FEF7E2
:10153000FCFE78E242484B22D2000AC80020891AF9
:1015400083418DD33B4880784008400039498870FA
:101550000846807802218843364988700021384A3D
:1015600011605160FEF7E1FE5DE2354801684068B8
:101570000A225140014306D10A213648FEF7AAFE4D
:10158000FEF7CDFE4FE22E4801684068962251409A
:10159000014302D1FEF7C9FE45E2294801684068CF
:1015A000FF2392335940014307D10A212648FEF711
:1015B00091FEFEF7B4FE36E224E02148016840685F
:1015C000224A5140014302D1FEF7AFFE2BE21C48F4
:1015D0004B22D2000AC80020891A834187D31548BC
:1015E00080784008400013498870084680780221BE
:1015F0008843104988700021114A11605160FEF73C
:1016000094FE10E20B498978C810C10F09184910DF
:101610004900411A75D00749C9788810C10F0918C7
:1016200049104900411A5ED00548016840680A2304
:10163000594011E00000002000040040002C01404F
:10164000780000202E090000D80E000026020000BD
:10165000881300005C120000014306D10A21FE48F5
:10166000FEF738FEFEF75BFEDDE1FC4903C9962379
:101670005840084302D1FEF758FED4E1F74801680C
:101680004068FF2292325140014306D10A21F248BC
:10169000FEF720FEFEF743FEC5E1F0480168406812
:1016A000EF4B5940014302D1FEF73FFEBBE1EB484F
:1016B0004B21C900046842680020611A824185D329
:1016C000E848807840084000E649887008468078FD
:1016D00002218843E34988700021E04A116051608B
:1016E000FEF723FE9FE1DD48016840680A23594068
:1016F000014307D10A21DC48FEF7ECFDFEF70FFE9F
:1017000091E13DE0D548016840689622514001438F
:1017100002D1FEF70AFE86E1D04801684068FF2347
:1017200092335940014306D10A21CB48FEF7D2FD3E
:10173000FEF7F5FD77E1C94801684068C84B59409C
:10174000014302D1FEF7F1FD6DE1C4480CC84B2006
:10175000C0000021101A8B4186D3C248807840080F
:101760004000C04988700846807802218843BD49FE
:1017700088700021B94A11605160FEF7D6FD52E130
:10178000B84989780811C10F091849104900411A50
:101790007AD0B449C978C810C10F09184910490056
:1017A000411A4BD0AD48016840680A2251400143BC
:1017B00006D10A21A848FEF78DFDFEF7B0FD32E103
:1017C000A6480168406896225140014302D1FEF7C5
:1017D000ACFD28E1A14801684068FF2292325140E7
:1017E000014306D10A219C48FEF774FDFEF797FDE0
:1017F00019E19A4801684068994B5940014302D168
:10180000FEF793FD0FE195480CC84B20C000002166
:10181000101A8B418ED3934880784008400091493C
:10182000887008468078022188438E49887000219C
:101830008A4A11605160FEF778FDF4E0874801683C
:1018400040680A235940014306D10A218648FEF721
:1018500041FDFEF764FDE6E0804903C99622504051
:10186000084302D1FEF761FDDDE07C480168406875
:10187000FF2392335940014307D10A217648FEF7EE
:1018800029FDFEF74CFDCEE024E074480168406875
:10189000734A5140014302D1FEF747FDC3E06F4850
:1018A0000AC84B20C0000022081A934111D36D488A
:1018B0008078400840006B49887008468078022193
:1018C0008843684988700020644A10605060FEF7C1
:1018D0002CFDA8E0634989784811C10F0918491007
:1018E0004900411A15D05F49C9780811C10F09187C
:1018F00049104900411A4BD05848016840680A23F2
:101900005940014306D10A215348FEF7E3FCFEF794
:1019100006FD88E051480168406896225140014325
:1019200002D1FEF702FD7EE04C4801684068FF22CC
:1019300092325140014306D10A214748FEF7CAFCC2
:10194000FEF7EDFC6FE0454801684068444B5940A4
:10195000014302D1FEF7E9FC65E040494B22D20089
:1019600009C90021801A8B415DD33E488078400828
:1019700040003C49887008468078022188433949F4
:1019800088700021354A11605160FEF7CEFC4AE0B4
:101990003248016840680A235940014306D10A21B0
:1019A0003148FEF797FCFEF7BAFC3CE02B48016893
:1019B000406896235940014302D1FEF7B6FC32E05D
:1019C000264801684068FF2292325140014306D107
:1019D0000A212148FEF77EFCFEF7A1FC23E01F4808
:1019E000016840681E4A5140014302D1FEF79DFC48
:1019F00019E01A4806C84B20C0000023081A9A4173
:101A000011D318488078400840001649887008466D
:101A10008078022188431349887000210F4A1160A1
:101A20005160FEF782FC1148008A400840000F49CF
:101A3000088210BD10B504E00D4802F07FFB0D498F
:101A400008700D490A4802F092FC0028F4D10948B8
:101A500000784C287ED011E0D80E000078000020DD
:101A600026020000000000205C120000002C014053
:101A70000038014039000020050105001CDC412828
:101A800069D007DC030003F05AFB0739363A3E42BF
:101A9000464A390042380A2830D243007B449B88AA
:101AA0005B009F4440002B002B002B002B00A90063
:101AB00032032B000B016D016A287DD00CDC562807
:101AC0007BD004DC4D2879D0502817D1BAE16228A8
:101AD0005DD06728F9D1C0E06B380728DCD243001D
:101AE0007B449B885B009F447C015202CA02090030
:101AF0000900DE01B8030120FE490870B4E30220AA
:101B0000FC490870B0E30320FA490870ACE30420F4
:101B1000F8490870A8E30520F6490870A4E30620F8
:101B2000F4490870A0E3F448C07801210843F24961
:101B3000C8700846807802210843EF49887008463B
:101B4000807804218843EC49887008468078082111
:101B5000884301E0DFE1CEE2E749887008468078FB
:101B600010218843E4498870084680782021884302
:101B7000E14988700846807801210843DE49887071
:101B80000021DE4A11605160FEF7CFFB6CE3DA48BA
:101B9000C07840084000D849C870084680780221C3
:101BA0000843D54988700846807804218843D24983
:101BB00088700846807802E0B1E00EE323E2082155
:101BC0008843CD4988700846807810218843CA49E7
:101BD00088700846807820218843C7498870084665
:101BE000807801210843C44988700021C34A1160EC
:101BF0005160FEF79AFB37E3BF48C07802210843E3
:101C0000BD49C8700846807802218843BA49887067
:101C10000846807804210843B749887008468078D0
:101C200008218843B4498870084680781021884389
:101C3000B14988700846807820218843AE49887071
:101C40000846807801210843AB4988700021AB4ADF
:101C500011605160FEF769FB06E3A748C0780221D6
:101C60008843A549C8700846807802218843A24964
:101C7000887008468078042108439F498870084688
:101C80008078082188439C49887008468078102114
:101C9000884399498870084680782021884396496E
:101CA0008870084680780121084393498870002095
:101CB000924A10605060FEF738FBD5E28E48C0783B
:101CC000042108438C49C870084680780221884363
:101CD000894988700846807804218843864988703D
:101CE0000846807808210843834988700846807830
:101CF00010218843804988700846807820218843D5
:101D00007D49887008468078012108437A498870A7
:101D100000217A4A11605160FEF707FBA4E2764881
:101D2000C078042188437449C8700846807802212D
:101D300088437149887008468078042188436E4939
:101D4000887008468078082108436B4988700846E7
:101D5000807810218843684988700846807820215F
:101D600088436549887008468078012108436249A4
:101D700088700021614A11605160FEF7D6FA73E263
:101D80005D48C078082108435B49C87008468078E0
:101D90000221884358498870084680780421884386
:101DA00055498870084680780821884352498870D0
:101DB00008468078102108434F498870084680788B
:101DC000202188434C4988700846807801210843C7
:101DD000494988700021494A11605160FEF7A5FA0F
:101DE00042E24548C078082188434349C870084604
:101DF0008078022188434049887008468078042111
:101E000088433D49887008468078082188433A49CC
:101E10008870084680781021084337498870084642
:101E200080782021884334498870084680780121D1
:101E30000843314988700020304A10605060FEF736
:101E400074FA11E22C48C078102108432A49C8705E
:101E500008468078022188432749887008468078A0
:101E600004218843244988700846807808218843E3
:101E70002149887008468078102188431E4988705F
:101E800008468078202108431B49887008468078DE
:101E900001210843184988700021184A11605160D7
:101EA000FEF743FAE0E11448C07810218843124954
:101EB000C87008468078022188430F498870084618
:101EC0008078042188430C4988700846807808216E
:101ED000884309498870084680781021884306495C
:101EE0008870084680782021084303498870084696
:101EF000807805E015000020000000207800002018
:101F000001210843FE4988700021FE4A116051609A
:101F1000FEF70BFAA8E1FA48C07804210843F84913
:101F2000C8700846807802218843F54988700846C1
:101F3000807804218843F249887008468078082117
:101F40000843EF4988700846807810218843EC499F
:101F500088700846807820218843E94988700846BF
:101F6000807801210843E64988700020E54A106026
:101F70005060FEF7DAF901221146A020FEF758FA68
:101F8000DF48007802210843DD4908706CE1DC4835
:101F9000C07804218843DA49C87008468078022155
:101FA0008843D74988700846807804218843D449FB
:101FB00088700846807808210843D149887008460F
:101FC000807810218843CE49887008468078202187
:101FD0008843CB4988700846807801210843C84966
:101FE00088700021C74A11605160FEF79EF90022F7
:101FF0000121A020FEF71CFAC14800780221884385
:10200000BF49087030E1BE48C07840084000BC4974
:10201000C8700846807802210843B949887008468C
:10202000807804218843B649887008468078082162
:102030008843B34988700846807810218843B049A6
:1020400088700846807820218843AD49887008460A
:10205000807801210843AA4988700021A94A1160AB
:102060005160FEF762F901220221A020FEF7E0F99B
:10207000A348007808210843A1490870F4E0A0486B
:10208000C078012108439E49C87008468078022123
:1020900008439B4988700846807804218843984902
:1020A00088700846807808218843954988700846DA
:1020B00080781021884392498870084680782021D2
:1020C00088438F49887008468078012108438C49ED
:1020D000887000208B4A10605060FEF726F90022BD
:1020E0000221A020FEF7A4F9854800780821884342
:1020F00083490870B8E08248007840084000804971
:102100000870002080490860AEE07D48C078022158
:1021100008437B49C8700846807802218843784983
:1021200088700846807804210843754988700846FD
:102130008078082188437249887008468078102189
:1021400088436F49887008468078202188436C490D
:10215000887008468078012108436949887000200A
:10216000684A10605060FEF7E0F86848006801288F
:1021700032D001206549086065480078012819D1EE
:1021800064480078002805D101220021A020FEF734
:102190004FF908E05F480078012804D102220021AD
:1021A000A020FEF745F900205B4908603A205B4912
:1021B000086011E05A4800780A2803DB5848007884
:1021C000F52803DD0A205749086002E00F20554931
:1021D00008603A205449086046E04948C078012127
:1021E00008434749C870084680780221084344499B
:1021F00088700846807804218843414988700846E1
:102200008078082188433E498870084680781021EC
:1022100088433B49887008468078202188433849A4
:10222000887008468078012108433549887000206D
:10223000344A10605060FEF778F800221146A02062
:10224000FEF7F6F800220621A020FEF7F1F80022A2
:102250000721A020FEF7ECF806E02948007840218D
:1022600008432749087000BF00BF10BD302002F0AE
:102270005FFB7D20C00002F098FBFDF76DFFFDF7CE
:102280009CFFFEF758F8FEF7A6F8FEF77FF9FEF779
:102290001AFAFEF7E3F90920C006808A0121C90372
:1022A00088430921C90688820020204908702048F7
:1022B000808A082188431E49888211480078400896
:1022C00040000F49087008460078082188430C49EF
:1022D00008700120174908700948007802218843D6
:1022E00007490870002014490870FEF785FA09486C
:1022F0000078002803D007480078012826D11DE087
:102300000000002078000020400000206400002031
:102310003D0000203A000020500000204C0000202A
:1023200083000020600000205400002033000020C3
:102330000004004834000020360000200120FE493F
:102340000870FEF70EFC0020FB49087033E2FB49E1
:102350004878C10F091849104900411A1BD00920BB
:10236000C006808A0121C90388430921C9068882E1
:102370000020F3490870F348808A08218843F14916
:1023800088820120F04908700020F04908605A2036
:10239000FEF713F80FE2E94909788810C10F091810
:1023A00049104900411AD1D0E448007804218843FB
:1023B000E2490870FEF79CFAE5480068401CE449D1
:1023C0000860084600683B281ED900200860E148E4
:1023D0000068401CDF49086008460068102813D3D5
:1023E000DD48006800280FD10860DC480068C2B2F0
:1023F0000621A020FEF71CF8D84800680004020E51
:102400000721A020FEF714F8D548007804280FDA39
:10241000D4480078401CD3490870084600783B280F
:1024200006DD00200870CE480078401CCC490870BA
:10243000C5480078012816D1C4480068401CC3492B
:10244000086008460068C007C00F02D17A20FDF777
:10245000B4FFBE480068F02804D30020BA490870D1
:10246000BA490860A5E1B84800780028FAD1BA480E
:10247000006800280ED1B349098A4811C10F091814
:1024800049104900411A0ED1B7480068401CB649AE
:10249000086008E0B0480068012804D1B24800682C
:1024A000401CB1490860AE480078042803DBAF48FF
:1024B0000078AF490870A8480068002802D00128B9
:1024C0007ED187E09F48808A082188439D49888281
:1024D000A848C0780A2803DBA648C078F52845DD5F
:1024E000A5480068401CA4490860084600683B28CD
:1024F00046D900200860A1480068401C9F49086038
:10250000084600680D280CD20920C006808A0121E7
:10251000C90308430921C906888201208849087037
:102520002EE0964800680D2810D3944800682328B0
:102530000CD20920C006808A0121C90388430921E1
:10254000C906888200207E49087019E08B4800681F
:10255000232815D30020894908603B20864908605C
:102560000020804908707E49087009E080480078A2
:10257000FEF7CCFA3B208049086000207F490860C4
:10258000794800683B2824D90020774908607348BF
:102590000068401C71490860084600682D21090147
:1025A000884216D30920C006808A0121C9038843C6
:1025B0000921C9068882002061490870012000E0D5
:1025C000F6E0654908600020644908603B206649E0
:1025D0000860EDE00920C006808A0121C903884314
:1025E0000921C9068882002055490870644800788E
:1025F000012812D05F48007856280EDA5148808AA8
:10260000082188434F4988826820FDF7D6FE0120C3
:102610005B490870002054490860534800683B2813
:1026200032D900205049086056480068401C55497E
:10263000086053480078012827D153480068401C9F
:10264000514908600846006800280CD00846006818
:10265000032808D83B48808A082188433949888262
:102660006820FDF7AAFE4848006804280CD3002023
:1026700039490860374908604249086042490860A2
:102680003F4908703249086091E03A4800780A28CA
:1026900003DB38480078F5282FDD3A480068002829
:1026A0000CD038480068102808D82648808A0821AD
:1026B0000843244988824820FDF77FFE314800689E
:1026C00011280CD32F480068142808D81D48808A88
:1026D000082188431B4988826820FDF76EFE29483F
:1026E0000068152863D300201B4908601949086059
:1026F000244908601649086059E02248006800280B
:102700000CD020480068142808D80E48808A082178
:1027100008430C4988824820FDF74FFE194800689D
:10272000152837D317480068182833D80548808AF9
:1027300008218843034929E03D00002000000020D3
:1027400033000020000400483B0000206C00002003
:102750004C000020500000206400002058000020A1
:10276000810000208000002054000020150000207F
:1027700014000020830000200C0000205C000020DA
:102780000A000020600000201000002088826820DD
:10279000FDF713FE0C480068192808D300200B49E8
:1027A00008600B490860084908600A49086000BFD2
:1027B00000BFFEF721F8CAE5C206D20E0121914002
:1027C000054A11607047000060000020640000208E
:1027D000500000204C00002000E100E010B504464D
:1027E0000920C006844209D10121480400F08EFB73
:1027F00000210120400400F089FB30E06A48844257
:1028000008D10121000200F081FB0021200200F02C
:102810007DFB24E06548844208D10121000200F0DC
:1028200075FB0021200200F071FB18E06048844233
:1028300009D10121080500F069FB002101200005F4
:1028400000F064FB0BE05B48844208D1012188055D
:1028500000F05CFB00210120800500F057FB10BD5B
:10286000F0B50A4600210023002400BF3DE0012509
:102870008D402B4615681D402C469C4234D115795D
:10288000012D02D01579022D16D185684F0003263F
:10289000BE40B543856055794E00B54086683543E6
:1028A0008560858801268E40B54385808588967928
:1028B0008E40B6B23543858005684F000326BE4082
:1028C000B543056015794E00B5400668354305608F
:1028D000C5684F000326BE40B543C560D5794E009C
:1028E000B540C6683543C560491C1029BFD3F0BD4B
:1028F0003149016000210171022141710021817182
:10290000C17170470122120413460B431A46C2617B
:10291000C161C261C269C269704702460020138A60
:102920000B4201D0012000E0002070470146088AD8
:10293000704702460020938A0B4201D0012000E03C
:10294000002070470146888A704781617047018581
:102950007047002A01D0816100E0018570478182C3
:102960007047F0B5002300244D07EE0E1546B54024
:102970002B46CD10AE0005462035AD594E07F70E5B
:102980000F26BE40B543CE10B60007462037BD51D6
:10299000CD10AE003D46AD591D432C46CD10AD00C7
:1029A0003E467451F0BD0000000400480008004895
:1029B000000C004800140048FFFF0000FE480068BB
:1029C00001210843FC49086008464068FB4908406B
:1029D000F949486008460068F9490840F649086026
:1029E00008460068012189040843F3490860084645
:1029F0000068012189048843EF490860084640685F
:102A00003F2109048843EC4948600846C06A000930
:102A10000001C8620846006BFF2154318843E64933
:102A200008630846406B4008400048630020886007
:102A300070470021E04A917011468870704710B5C8
:102A400002460021002300205111002902D1DA4C56
:102A500023680BE0012902D1D74C236A06E0022942
:102A600002D1D54C636A01E0D34C636BD106C90E29
:102A700001248C401C4201D0012000E0002010BD48
:102A800070B500240026002500BF1120FFF7D7FFF6
:102A90000546641C05200003844201D0002DF4D0BB
:102AA0001120FFF7CCFF002801D0012600E000260E
:102AB000304670BD01460020BF4A1068F823024628
:102AC0009A431046CA001043BB4A10607047002862
:102AD00006D0B949096801221143B74A116005E0DF
:102AE000B549096849084900B34A11607047014671
:102AF0000020B14A506BF82302469A431046CA00A0
:102B00001043AD4A50637047002806D0AA49496B6C
:102B100001221143A84A516305E0A749496B4908BE
:102B20004900A54A51637047002806D0A249496B65
:102B300004229143A04A516305E09F49496B042256
:102B400011439D4A516370479B49096A49084900EE
:102B5000994A11621146096A04229143964A116208
:102B60001146096A0143116270479349096A1822A4
:102B70009143914A11621146096A014311627047FB
:102B8000002806D08C49496A012211438A4A5162C1
:102B900005E08949496A49084900874A51627047F6
:102BA000854A52683D231B049A43834B5A601A4658
:102BB000526803460B431A437F4B5A607047002804
:102BC00007D07D4909680122120611437A4A116033
:102BD00006E079490968012212069143764A11609C
:102BE000704701460020744AD06A0009000102467D
:102BF0000A431046704AD0627047002807D06E49D9
:102C000009680122D20411436B4A116006E06A4947
:102C100009680122D2049143674A116070476649EE
:102C2000C871704701460020634A506880088000E0
:102C300002460A431046604A506070475E4840684A
:102C40000C2108407047014600205B4A5068F02381
:102C500002469A43104602460A431046564A5060BE
:102C6000704701460020544A506807231B02024661
:102C70009A43104602460A4310464F4A5060704736
:102C80004D4949680122920391434B4A51601146D4
:102C9000496882B21143484A51601146096B921546
:102CA0009143454A11631146096B020C1143424A94
:102CB000116370474049096B402291433E4A1163BA
:102CC0001146096B0143116370473B49096B1022A0
:102CD0009143394A11631146096B014311637047EF
:102CE0003549096B89088900334A11631146096B1C
:102CF000014311637047FEB50446002500260020FD
:102D00000190009000272C4840680C21084005469F
:102D1000002D04D0042D05D0082D28D105E0294828
:102D2000206027E02848206024E0234840680F21E5
:102D300089040840064620484068012109040840EB
:102D40000190B00C861C0198002803D11E487043E6
:102D500020600BE01848C06A0007000F401C00907C
:102D60001948009901F072FF7043206002E0154895
:102D7000206000BF00BF10484068F02108400546B1
:102D80002D091248475D2068F84060600A48406895
:102D900007210902084005462D0A0C48475D606876
:102DA000F840A0600448006BFF21013108408842D0
:102DB00010D00748E0601BE0001002400CB8FFF89C
:102DC000FFFFF6FE00127A0000093D008E00002091
:102DD000809FD500744840680121890308408842DB
:102DE00003D0A0684008E06002E0A0688008E060CE
:102DF0006D48006B40210840402802D06B4820619C
:102E000002E00120C00320616748006B10210840E8
:102E1000102802D06648606101E020686061624865
:102E2000006B8007800F02D1A068A06119E05E48A6
:102E3000006B8007800F012802D12068A06110E09C
:102E40005948006B8007800F022802D18003A061DF
:102E500007E05548006B8007800F032801D15448D4
:102E6000A061FEBD5049096A01434F4A1162704793
:102E7000002807D04C49096A0122D20311434A4A6B
:102E8000116206E04849096A0122D2039143464A89
:102E900011627047002807D04349096A01221204D1
:102EA0001143414A116206E03F49096A01221204B6
:102EB00091433D4A11627047002905D03A4A526950
:102EC0000243394B5A6104E0374A52698243364B18
:102ED0005A617047002905D0334A92690243324B48
:102EE0009A6104E0304A926982432F4B9A6170479D
:102EF000002905D02C4AD26902432B4BDA6104E049
:102F0000294AD2698243284BDA617047002905D0EB
:102F1000254A926A0243244B9A6204E0224A926A4A
:102F20008243214B9A627047002905D01E4AD2681D
:102F300002431D4BDA6004E01B4AD26882431A4BFD
:102F4000DA607047002905D0174A12690243164B10
:102F50001A6104E0144A12698243134B1A617047E4
:102F6000002905D0104A527A02430F4B5A7204E0EE
:102F70000D4A527A82430C4B5A7270470A48406A93
:102F800001210906084308494862704701460020AC
:102F9000054A92680A4201D0012000E000207047F3
:102FA0000149887270470000001002401280000042
:102FB00000127A0010B50446FE48844208D101216F
:102FC000C014FFF7B1FF0021E014FFF7ADFF56E09A
:102FD00001208007844208D101210846FFF7B2FF93
:102FE00000210120FFF7AEFF49E0F348844208D1F9
:102FF00001210220FFF7A6FF00210220FFF7A2FF18
:103000003DE0EE48844208D101211020FFF79AFFED
:1030100000211020FFF796FF31E0E948844208D1F3
:1030200001218015FFF78EFF0021A015FFF78AFF11
:1030300025E0E448844209D101210804FFF774FF28
:10304000002101200004FFF76FFF18E0DE488442F2
:1030500009D101214804FFF767FF00210120400446
:10306000FFF762FF0BE0D948844208D101218804B0
:10307000FFF75AFF002101208004FFF755FF10BD24
:1030800000220288CB4B984206D001239B0798422E
:1030900002D0C94B984203D1CD4B1A404B881A43FA
:1030A000C64B984203D0CB4B1A400B891A4302807F
:1030B0004B68C3620B880385BE4B984208D0C14B56
:1030C000984205D0C04B984202D0C04B984201D1E3
:1030D0008B7A03860123838270470021C9434160B4
:1030E00000210180018141808172704701858282C7
:1030F00070470A4600210188B54B19400B4613431F
:1031000019460180704741627047C16270470146AD
:10311000486A70470146088D7047002904D002882C
:1031200002231A43028004E00288A94B6E331A403E
:1031300002807047002904D0028804231A430280C9
:1031400004E00288A24B6C331A40028070470029C9
:1031500004D0028880231A43028004E002889C4B3A
:10316000103B1A40028070470288994B68331A401E
:10317000028002880A43028070470288954B1A40F9
:10318000028002880A4302807047002904D0028826
:1031900001231A43028004E002888D4B6F331A40EA
:1031A000028070470A884B881A438B881A43CB8861
:1031B0001A430B891A434B891A438B891A434423B8
:1031C0001A5270470021018041808180C1800181B5
:1031D000418181817047002907D04422125A01237E
:1031E000DB031A4344231A5205E04422125A5304C3
:1031F0005B0C44221352704770B500240022002358
:10320000058C734E6F3635400584028C8388048BA1
:103210006F4D2C40B51E2C400D882C43751E2A4046
:103220008D892A434D882A43624DA84208D0654DB6
:10323000A84205D0644DA84202D0644DA84212D1E4
:10324000634D68352A40CD892A43614D6C352A404B
:103250008D882A435E4D903D2B405F4D2B400D8A5B
:103260002B434D8A2B43838004838D6845630284FE
:1032700070BD70B5002400220023058C544E6036CA
:1032800035400584028C8388048B544D2C40514D6D
:103290002C400D882D062D0C2C434D4D50352A40C9
:1032A0008D892D052D0C2A434D882D052D0C2A4383
:1032B000404DA84219D1464D103D2A40CD892D05DB
:1032C0002D0C2A43424D30352A408D882D052D0C7A
:1032D0002A43434D2B40434D2B400D8AAD042D0C0A
:1032E0002B434D8AAD042D0C2B43838004838D68C2
:1032F0008563028470BD70B5002400220023058C14
:10330000334E903E35400584028C8388848B304D4B
:103310002C402F4D6D352C400D882C432E4D2A40CE
:103320008D892D062D0C2A434D882D062D0C2A4300
:10333000204DA84217D12B4D2A40CD892D062D0CAA
:103340002A43274D2A408D882D062D0C2A43264DD1
:103350002B40264D2B400D8A2D052D0C2B434D8ADD
:103360002D052D0C2B43838084838D68C5630284D7
:1033700070BD70B5002200230024058C1A4E354024
:103380000584038C8488828B144D2A40114D2A4079
:103390000D882D062D0C2A43144D2B408D892D07A9
:1033A0002D0C2B434D882D072D0C2B43014DA8428E
:1033B00024D11DE0002C014000040040001000401A
:1033C000002000400040014000440140004801400E
:1033D0008FFF0000FFFC0000FFFD0000FF8F0000DA
:1033E000FFFB0000FFF70000FFEF0000FFDF000021
:1033F000FC4D2C400D8AAD052D0C2C43848082831E
:103400008D680564038470BD002101804180818046
:1034100081608181C18101824182704770B503461C
:10342000002000241846183001258D40ACB21D8CB8
:10343000A5431D84002901D0082909D14D10281861
:1034400005687026B54305600568154305600DE005
:103450000D1F2D046D0C2818056807263603B5438B
:10346000056005681606360C3543056070BD41637E
:10347000704781637047C1637047016470470A46B3
:103480000021018BD84B19400B4613431946018389
:1034900070470A460021018BD44B194013061B0CC0
:1034A0001943018370470A460021818BCE4B194096
:1034B0000B4613431946818370470A460021818BCE
:1034C000CA4B194013061B0C19438183704700290E
:1034D00004D0828801231A43828004E08288C24B90
:1034E0006F331A40828070470A460021018BBE4B21
:1034F000683319400B4613431946018370470A4647
:103500000021018BBA4B194013061B0C1943018390
:1035100070470A460021818BB34B683319400B4634
:1035200013431946818370470A460021818BB04BB3
:10353000194013061B0C1943818370470A4600216A
:10354000018BA94B6C3319400B4613431946018379
:1035500070470A460021018BA64B194013061B0C2D
:103560001943018370470A460021818B9E4B6C33BF
:1035700019400B4613431946818370470A460021C0
:10358000818B9C4B194013061B0C19438183704798
:103590000A460021018B944B103B19400B46134304
:1035A0001946018370470A460021018B4904490CE2
:1035B00013061B0C1943018370470A460021818BB7
:1035C000894B103B19400B461343194681837047C2
:1035D0000A460021818B4904490C13061B0C194330
:1035E000818370470A460021018C7F4B6E3319405E
:1035F0000B4613431946018470470A460021018C8B
:10360000794B683319400B461343194601847047C0
:103610000A460021018C744B5033194013051B0CD2
:103620001943018470470A460021018C6E4B103B00
:10363000194013051B0C1943018470470A460021E9
:10364000018C6D4B194013061B0C19430184704704
:103650000A460021018C664B194013061B0C1943C6
:10366000018470470A460021018C644B19401307FE
:103670001B0C19430184704702895B4B68331A4065
:10368000028102890A430281704730B50023012478
:103690008C40A3B2048C9C430484048C15468D405A
:1036A000ADB22C43048430BD30B5002304248C40DB
:1036B000A3B2048C9C430484048C15468D40ADB2A7
:1036C0002C43048430BD002904D0828804231A438B
:1036D000828004E08288444B6C331A4082807047B9
:1036E000828B474B1A408283828B0B061B0C1A433A
:1036F00082837047F8B50C4600210025002600960D
:10370000068C404F3E400684818B058C2607360C84
:1037100000963D4E31401606360C31431E07360CDE
:1037200031433A4E354001273F03009E3E43354327
:1037300081830584F8BD828B2B4B64331A408283CE
:10374000828B0A4382837047F8B50C46002100251E
:1037500000260096068C244F903F3E400684818BC5
:10376000058C2606360C00961F4E833E31401E0502
:10377000360C16433143264E3540FF270137009E55
:103780003E43354381830584F8BD028B1C4B1A40B0
:103790000283028B0B061B0C1A4302837047F8B599
:1037A0000C460021002500260096068C0E4F60373F
:1037B0003E400684018B058C2605360C0096124E81
:1037C00031401E07360C31431606360C3143064E87
:1037D000303E35401027009E3E433543018305842B
:1037E000F8BD0000FFBF00008FFF0000FF8F00004A
:1037F000FFF70000FFFB0000FFFD0000FFDF0000FF
:10380000FFF30000FFEF0000FF0C0000FF5F00006F
:10381000FFF50000028BD84B1A400283028B0A434B
:1038200002837047F0B50C4600210025068CD24F6C
:103830000B373E400684018B058CCF4EE73E31406E
:103840001E05360C16433143CB4EB61C35400126BF
:103850002643354301830584F0BD70B505460C460B
:10386000208800280AD12389A28861882846FFF78A
:10387000D9FFE1882846FFF7CDFF25E020880428FE
:103880000AD12389A28861882846FFF788FFE1884A
:103890002846FFF77AFF17E0208808280AD12389F5
:1038A000A28861882846FFF74FFFE1882846FFF786
:1038B00042FF09E02389A28861882846FFF71AFFA2
:1038C000E1882846FFF70CFF70BD00210180418090
:1038D000012181800021C18001817047F8B5054632
:1038E0000C46002601276088002801D1022600E04E
:1038F0000026A088012801D1022700E001272088A6
:10390000002814D12389A28861882846FFF78AFFFE
:10391000E1882846FFF77EFF23893A46314628464C
:10392000FFF73DFFE1882846FFF72FFF13E02389CB
:10393000A28861882846FFF732FFE1882846FFF712
:1039400024FF23893A4631462846FFF76BFFE1887A
:103950002846FFF75FFFF8BD0146486B70470146F8
:10396000886B70470146C86B70470146086C70470A
:10397000002A03D083890B43838102E083898B4330
:10398000838170478182704702460020138A0B4270
:1039900001D0012000E000207047CA430282704736
:1039A00030B50246002000230024158A0D402B4626
:1039B00095890D402C46002B03D0002C01D001200E
:1039C00000E0002030BDCA430282704710B50B46AC
:1039D00013434824235210BD002A03D083890B438C
:1039E000838102E083898B4383817047002904D05F
:1039F000828808231A43828004E082885E4B1B1D64
:103A00001A408280704701895B4A521D1140018132
:103A100070470A4600210189574B643B19400B4609
:103A2000134319460181704730B504460D462946B7
:103A30002046FFF7EEFF208907210843208130BD93
:103A4000F8B504460D4616461F46602D06D13B4686
:103A5000012231462046FFF7A2FE05E03B46012247
:103A600031462046FFF7DEFE29462046FFF7D1FF0C
:103A70002089072108432081F8BD30B50C4600217C
:103A80000189C9B21D062D0C154325432943018127
:103A900030BDFFB505460E46174600243A4631466E
:103AA0002846039BFFF7E9FF2C893348401D04405B
:103AB00007200443304864380440702004432C81BC
:103AC000FFBDF0B504460D4616461F463B4632463E
:103AD00029462046FFF7D1FF2089012189030843A9
:103AE0002081F0BD8288244B643B1A40828082880A
:103AF0000A438280704702891F4B5B1D1A40028176
:103B000002890A430281704702891B4B743B1A40A9
:103B1000028102890A4302817047F0B50C460021F8
:103B2000002500260189058B068C134F7F1D394027
:103B30000F4627433946114F3D40FF2702373D438B
:103B40000D4F9E3F3E401F053F0C17433E430181F2
:103B500005830684F0BD002904D0828880231A439F
:103B6000828004E08288044B743B1A408280704754
:103B70005022115270470000F3FF0000FCFC0000CF
:103B800010B50446B348844207D101214015FFF720
:103B9000CBF900216015FFF7C7F910BD10B5002261
:103BA000C268AD4B1A400C7964030B6823438C68E0
:103BB0002343CC6823430C6923434C6923431A43B2
:103BC000C26010BD0021016001718160C1600161AE
:103BD00041617047002904D0826801231A43826042
:103BE00003E0826802231A4382607047002A03D0F0
:103BF00003690B43036102E003698B430361704770
:103C0000002905D0C2680123DB031A43C26004E027
:103C1000C2680123DB039A43C2607047002905D0C4
:103C2000C26801239B031A43C26004E0C2680123F7
:103C30009B039A43C2607047002905D0C2680123E4
:103C4000DB051A43C26004E0C2680123DB059A4326
:103C5000C26070470B0413430362704710B50A46F5
:103C60000021C1681F24A4060B46A34319460B4636
:103C700013431946C16010BD002905D0C268012355
:103C80009B051A43C26004E0C26801239B059A4366
:103C9000C2607047002807D0704989680122D205A8
:103CA00011436E4A916006E06C4989680122D20591
:103CB00091436A4A91607047002807D06749896834
:103CC000012292051143654A916006E063498968C3
:103CD000012292059143614A91607047002807D004
:103CE0005E4989680122120611435C4A916006E030
:103CF0005A498968012212069143584A91607047D7
:103D000010B50B460021846A1C43846200BF0C4638
:103D100014432146416110BD002905D0C26801232A
:103D20005B031A43C26004E0C26801235B039A4349
:103D3000C2607047002905D0C26801231B041A43E2
:103D4000C26004E0C26801231B049A43C26070474A
:103D5000002905D0C26801231B031A43C26004E096
:103D6000C26801231B039A43C260704730B5014605
:103D70000020002200238C680125ED072C438C6075
:103D800000BF8C68E30FDB07521C0F242403A24200
:103D900001D0002BF5D18C68E40FE40701D1086C49
:103DA00000E0002030BD816810221143816070471F
:103DB000816804221143816070470146086C80B21B
:103DC0007047002904D0C26801231A43C26003E08F
:103DD000C26852085200C2607047C26802239A4308
:103DE000C260C2680A43C2607047002A03D04368B9
:103DF0000B43436002E043688B434360704730B538
:103E000002460020002301242406214205D09468A4
:103E100001252D06AC43234600E013681C460C42E6
:103E200001D0012000E0002030BD0160704710B5D6
:103E300002460020002354680C40234614680C42BC
:103E400003D0002B01D0012000E0002010BD016054
:103E5000704700000024014003D2FFFF002701400B
:103E600010B50446F648844209D101218803FFF7C2
:103E70005BF8002101208003FFF756F80BE0F148C2
:103E8000844208D101214804FFF75CF80021012099
:103E90004004FFF757F810BDF0B589B005460E464F
:103EA00000240020089000BF00BF286840084000A0
:103EB00028606C6803210903204688430446B068E3
:103EC00004436C602C68E0480440F1687068084363
:103ED0003169084304432C60AC6803210902204681
:103EE0008843044670690443AC606846FEF703FFEC
:103EF000D348854202D10698089001E002980890C4
:103F000028680121C903084209D0326851001923E9
:103F1000089A5A43104600F099FE074608E03268B6
:103F200091001923089A5A43104600F08FFE074665
:103F30006421384600F08AFE0401200964214843C8
:103F4000381A079028680121C90308420AD0079946
:103F5000C90008463230642100F078FE4007400F67
:103F6000044309E00799090108463230642100F052
:103F70006DFE0007000F0443AC8109B0F0BD4B217A
:103F8000C9010160002141608160C1600C210161B3
:103F900000214161704710B5002242680F242402BD
:103FA0001346A3431A464C680B6823438C6823438B
:103FB000CC6823431A43426010BD00210160416078
:103FC0008160C1607047002904D0026801231A4350
:103FD000026003E002685208520002607047002A43
:103FE00003D003680B43036002E003688B43036064
:103FF0007047002905D002680123DB031A430260E1
:1040000004E002680123DB039A4302607047002941
:1040100005D082680123DB021A43826004E08268D3
:104020000123DB029A4382607047002905D0426871
:104030000123DB041A43426004E042680123DB04ED
:104040009A4342607047002905D0426801239B04CF
:104050001A43426004E0426801239B049A43426091
:104060007047002A03D043680B43436002E0436873
:104070008B4343607047002905D042680123DB036E
:104080001A43426004E042680123DB039A43426022
:104090007047002905D042680123DB051A434260BE
:1040A00004E042680123DB059A434260704742699D
:1040B000120E1206426142690A4342617047028A47
:1040C000FF231B021A400282028A0A4302827047BF
:1040D000002904D0026802231A43026003E0026848
:1040E00002239A4302607047826803231B059A43A8
:1040F000826082680A4382607047002905D0426866
:1041000001231B051A43426004E0426801231B059A
:104110009A4342607047426803235B059A434260BA
:1041200042680A4342607047C1690122D203914349
:10413000C1617047CA05D20D028570470146888C5F
:10414000C005C00D704742681202120A4260426800
:104150000B061A4342607047002905D0026801230C
:104160005B031A43026004E0026801235B039A4385
:104170000260704702680123DB029A430260026812
:104180000A4302607047426810239A4342604268C3
:104190000A4342607047426820239A434260426863
:1041A0000A4342607047002905D0426801239B03FF
:1041B0001A43426004E0426801239B039A43426031
:1041C0007047002904D0826808231A43826003E004
:1041D000826808239A4382607047028AD2B20282C0
:1041E000028A0B021A4302827047002904D08268B7
:1041F00020231A43826003E0826820239A4382606E
:104200007047002904D0826810231A43826003E0BB
:10421000826810239A4382607047826807235B0498
:104220009A43826082684B041A43826070474269F5
:104230001202120A426142690B061A434261704738
:104240000038014000440040F3E9FFFF8268042386
:104250009A43826082680A4382607047002904D0D2
:10426000826802231A43826003E0826802239A4331
:1042700082607047002905D0826801239B031A439E
:10428000826004E0826801239B039A438260704746
:1042900082680123DB039A43826082680A4382605A
:1042A000704702681F235B059A43026002684B0552
:1042B0001A430260704702681F231B049A4302607E
:1042C00002680B041A4302607047002A03D0836817
:1042D0000B43836002E083688B438360704782688E
:1042E00001235B039A43826082680A4382607047BD
:1042F000F8B5034600240026009600250020184645
:104300000E04340ECEB200960127009EB7403D4603
:10431000022C01D1001D02E0032C00D10830002A3C
:1043200003D006682E43066002E00668AE430660CE
:10433000F8BD002A03D0038B0B43038302E0038BF9
:104340008B4303837047826801231B039A43826077
:1043500082680A438260704702460020D3690B429C
:1043600001D0012000E0002070470162704770B565
:1043700002460B4600240021002500201E04350EB5
:10438000D9B201268E403146012D02D11668314046
:1043900006E0022D02D15668314001E096683140B6
:1043A0001C0C0126A6403446D6693440002903D0AF
:1043B000002C01D0012000E0002070BD10B50023CA
:1043C00000220B0C01249C402246026210BD00001A
:1043D00000218278002A27D0274A03231B02D21803
:1043E00003789B109B00D15802789207D30EFF22CE
:1043F0009A400B469343194642789207120E03786F
:104400009B07DB0E9A4011431B4A03231B02D21861
:1044100003789B109B00D1500278D306DB0E01225B
:104420009A40154B1A6007E00278D306DB0E012292
:104430009A40114B80331A607047002905D00F4A0B
:10444000126902430D4B1A6104E00C4A126982435F
:104450000A4B1A617047042806D1094909690422E8
:104460001143074A116105E0054909690422914396
:10447000034A11617047000000E100E000ED00E038
:1044800000E000E010B50446F948844209D101215A
:104490004805FEF757FD002101204005FEF752FDBB
:1044A00008E001218805FEF74DFD0021012080056F
:1044B000FEF748FD10BD10B50A46002103685B08F1
:1044C0005B0003600168EB4B194094682402536859
:1044D0002343194301600F2424061368A343036197
:1044E000036801242343036000218160C1601469D3
:1044F000936923431946816083680124E4032343BD
:104500008360D16803680B4303604168DA4B19404C
:1045100053691943416010BD002101604160816011
:10452000C16001610121C9034161002181617047BE
:10453000002904D0026801231A43026003E00268E4
:104540005208520002607047002905D0026801231A
:104550005B031A43026004E0026801235B039A4391
:1045600002607047002A03D003680B43036002E037
:1045700003688B4303607047002905D0026801235C
:104580005B049A43026004E0026801235B041A435F
:1045900002607047002905D0026801239B041A437A
:1045A000026004E0026801239B049A4302607047A2
:1045B000002905D0C2680123DB031A43C26004E06E
:1045C000C2680123DB039A43C260704770B50B4693
:1045D0000021C168A94C2140FE241C401502072679
:1045E000360235402C432143C16070BD002905D0FF
:1045F00002680123DB041A43026004E0026801231D
:10460000DB049A4302607047002905D00268012349
:104610001B041A43026004E0026801231B049A434E
:10462000026070470A4600214168890A89029305A1
:104630009B0D194341607047002905D04268012352
:10464000DB021A43426004E042680123DB029A4322
:1046500042607047002905D0426801235B061A4377
:10466000426004E0426801235B069A43426070475F
:10467000002905D0426801231B061A43426004E06A
:10468000426801231B069A434260704710B50A46F0
:1046900000214168FF2424040B46A3431946130458
:1046A00023401943416010BD002905D14268012310
:1046B0009B029A43426004E0426801239B021A4332
:1046C00042607047002905D0426801235B031A430A
:1046D000426004E0426801235B039A4342607047F2
:1046E000002905D0426801239B031A43426004E07D
:1046F000426801239B039A4342607047002905D01A
:10470000426801231B031A43426004E0426801230C
:104710001B039A4342607047002905D04268012379
:10472000DB039A43426004E042680123DB031A433F
:1047300042607047014688697F2252041040000C95
:10474000704710B50146002200208B690124240423
:1047500023401A46002A00D101E00120800210BD4A
:10476000F0B50C4600214168454D2940A505AD0D29
:104770001604FF273F043E4035431D43059E354345
:1047800029434160F0BD002905D0026801239B0543
:104790001A43026004E0026801239B059A43026009
:1047A0007047002905D042690123DB031A434261A7
:1047B00004E042690123DB039A4342617047002908
:1047C00005D042690123DB071A43426103E04269D5
:1047D0005200520842617047002905D04269012306
:1047E0001B031A43426104E0426901231B039A43FD
:1047F000426170470A4600214169090B090313050C
:104800001B0D19434161704710B50A4600214169EB
:104810001C4B194013041B4CE443234019434161D2
:1048200010BD002905D002680123DB051A43026090
:1048300004E002680123DB059A4302607047002907
:1048400005D0026801239B061A43026004E0026857
:1048500001239B069A43026070470146086AC0B272
:1048600070470246002313465B1818687047000023
:1048700000540040FFE0CF00FF7FFF0701F8FFFF7B
:10488000009800FCFFFF00F0816270470146486A13
:10489000C0B27047002A03D003680B43036002E0F4
:1048A00003688B430360704710B502460023002065
:1048B00093691C460C402346002B01D0012000E0E8
:1048C000002010BDC161704710B5024600230020D2
:1048D00093691C460C402346002B01D0012000E0C8
:1048E000002010BDC16170470E49086070470D4936
:1048F000486070470B49886070470B480949086059
:1049000070470849086170470848064908607047C1
:1049100001460020034AD2680A4201D0012000E08B
:104920000020704700300040AAAA0000CCCC000054
:104930003A49096904229143384A116111460969CB
:1049400002229143354A1161C217520F1218D21038
:10495000334B1A70194609787D22D2005143314AEF
:104960001180114609887D22D20051432E4A1160E0
:1049700070472D4909684143491E284A5161012168
:1049800091611146096901221143244A116100BF56
:1049900022490969012212041142F9D01F4909690B
:1049A000490849001D4A116170471E490988414361
:1049B000491E1A4A5161012191611146096901227A
:1049C0001143164A116100BF1449096901221204FA
:1049D0001142F9D011490969490849000F4A11618A
:1049E00070470F4909784143491E0C4A5161012122
:1049F00091611146096901221143084A116100BF02
:104A000006490969012212041142F9D003490969D2
:104A100049084900014A11617047000000E000E0C8
:104A2000A6000020A4000020A00000200748804726
:104A300007480047FEE7FEE7FEE7FEE7FEE7FEE782
:104A400004480549054A064B704700002D4B0008F5
:104A5000B1000008A0010020A0070020A003002052
:104A6000A0030020002100206F4A126801231B04CC
:104A70001A436D4B1A6000BF6B4A126801235B0436
:104A80001A401046491C002803D105221203914206
:104A9000F2D1654A126801235B041A4201D0012059
:104AA00000E00020012840D1604A126810231A4318
:104AB0005E4B1A601A46126801231A435B4B1A6058
:104AC000594A5268584B5A601A4652685A601A46F8
:104AD00052683F231B049A43534B5A601A4652684C
:104AE00011231B041A43504B5A601A4612680306DE
:104AF0001A434D4B1A6000BF4B4A126801235B06F4
:104B00001A42F9D0484A526892089200464B5A60BD
:104B10001A46526802231A43434B5A6000BF424A66
:104B200052680C231A40082AF9D1704710B53E4844
:104B300000683F4908433C490860084640683D49D1
:104B4000084039494860084640683B4908433649AF
:104B500048600846C06A00090001C8620846006B48
:104B6000FF2154318843304908630846406B4008B0
:104B70004000486300208860FFF774FF2A480068FF
:104B80000121090608432849086010BDF8B5002531
:104B9000002400260027244840680C2108400546D0
:104BA000002D04D0042D06D0082D2AD107E023487B
:104BB0002349086029E023482149086025E01A4874
:104BC00040680F21890408400446174840680121C5
:104BD000090408400646A00C841C002E04D1194884
:104BE0006043174908600BE00F48C06A0007000FD8
:104BF000471C3946134800F029F860431049086003
:104C000003E00E480E49086000BF00BF0648406838
:104C1000F021084000090C490D5C09480068E84093
:104C200007490860F8BD0000001002400020024063
:104C3000010004000CB8FFF80A00280700127A00EF
:104C4000A800002000093D00AC000020002203095C
:104C50008B422CD3030A8B4211D300239C464EE097
:104C600003460B433CD4002243088B4231D3030953
:104C70008B421CD3030A8B4201D394463FE0C30905
:104C80008B4201D3CB01C01A524183098B4201D31D
:104C90008B01C01A524143098B4201D34B01C01A08
:104CA000524103098B4201D30B01C01A5241C30880
:104CB0008B4201D3CB00C01A524183088B4201D3EF
:104CC0008B00C01A524143088B4201D34B00C01ADB
:104CD0005241411A00D201465241104670475DE0F0
:104CE000CA0F00D04942031000D340425340002273
:104CF0009C4603098B422DD3030A8B4212D3FC221C
:104D0000890112BA030A8B420CD3890192118B429A
:104D100008D3890192118B4204D389013AD09211B0
:104D200000E08909C3098B4201D3CB01C01A52416B
:104D300083098B4201D38B01C01A524143098B4234
:104D400001D34B01C01A524103098B4201D30B011D
:104D5000C01A5241C3088B4201D3CB00C01A524142
:104D600083088B4201D38B00C01A5241D9D2430829
:104D70008B4201D34B00C01A5241411A00D2014666
:104D8000634652415B10104601D34042002B00D5D0
:104D90004942704763465B1000D3404201B5002092
:104DA000C046C04602BD704770477047CB02420DF7
:104DB00010B51A430B1504D00124E4072243002B3D
:104DC00006DB0A4CE31A05D41046D840FF2B00DD61
:104DD000002010BD4A00002800D001201018044A0D
:104DE0009042F5D8C817C04310BD00001E04000053
:104DF0000000E0FF1F22030C02D10F22000402D0AA
:104E0000030E02D003E000217047083A0002030FAE
:104E100001D1121F0001830F01D1921E80000028D2
:104E200001DB521E4000120551184205C012411804
:104E300010467047C10FC90700D0404201229207B7
:104E40001143D7E701218907D4E70000F0B59E4C54
:104E50000D092646AC46AE430D465D4089B0002E96
:104E60007ED01E092746B743FAD067462740ED0F8C
:104E70003D43264075D024012142FBD07419FF2503
:104E8000AD04641B0494CC02D90201231B05E40A7F
:104E9000C90A1C4319432401030F1C430B010501DC
:104EA000110F0B43A00B81032D0916018C43A90B95
:104EB0008A0395439A0B9703BB4336099C46B30B71
:104EC0009F03BE430F465F4303972F4677430296E7
:104ED0004E19BE460796029FDF197E430597039F32
:104EE000F71B7646BE1B77463F0100970196039F4E
:104EF000B60BF619B646019E009FB604BF1902D341
:104F00007646761CB64676467600002F01D00127FD
:104F10003E4367467D430695029D27466F430097B3
:104F20007F00069DBE196F00BD1966469619079F42
:104F3000AE467743069D03967D1B01950619059D98
:104F4000009F75430296EE1B019D51436D1A074663
:104F50005F43F31B019500937546EB06734601E032
:104F600092E08EE003D05B0901252B4300E05B0952
:104F700000263546B6460E0A2D0609063543CB18DF
:104F800076467541AE4600213D0A09063E06294394
:104F9000F61875466941B646019B00269D0DB7027D
:104FA0002F439B0276469B194F41009900258E0D99
:104FB000AD028902C91835437D41504362465443CE
:104FC000039B029A5A43121A161B0022B70E930132
:104FD000B60175193B435341070B120500054519EE
:104FE0003A435A4100200306270A20063B4344184F
:104FF00014266B41AB4200D2521C01204002824277
:1050000003D315260221C94301E00321C94320200F
:10501000851BAA401F46AF40F34013432046049A25
:10502000F0401214891809055A1804993843C90721
:105030005140AC4009D001239C4006D30023401CC2
:105040005941002C01D140084000204B002A03DBCD
:105050001A4201D08B4312D1012204989206904249
:1050600007DB05204007091819480143C0124140D9
:1050700004E0032040070818C10FC907002009B049
:10508000F0BD0020E907FAE706180C464C4111482C
:105090007642A04114D394181A465A410D486442EE
:1050A00090410DD3012049004005814208D35900A9
:1050B000814205D3E90F054AC90700201143DEE705
:1050C00000200549DBE700000000FF070000F07F3B
:1050D000FFFFFF7F0000E0FF0000F87F754600F053
:1050E00023F8AE46050069465346C008C000854611
:1050F00018B020B5FFF7A4FC60BC00274908B646ED
:105100000026C0C5C0C5C0C5C0C5C0C5C0C5C0C5D6
:10511000C0C5403D49008D4670470446C046C04664
:105120002046FBF712F80000004870473C010020C1
:1051300001491820ABBEFEE726000200704730B4DC
:105140007446641E2578641CAB4204D3635D5B0027
:10515000E31830BC18471D46F8E700007C510008F2
:1051600000000020BC000000F400000838520008D5
:10517000BC000020E4060000100100080000000050
:1051800000000000010100003B00000000000000E2
:105190000303DC000000000000000000000000002D
:1051A00000000000000000000000000000000000FF
:1051B00000000000000000000000000000000000EF
:1051C00000000000000000000000000000000000DF
:1051D00000000000000000000000000000000000CF
:1051E00000000000000000000000000000000000BF
:1051F00000000000000000000000000000000000AF
:10520000000000000000000000000000000001029B
:10521000030401020304060708090000000000005F
:1052200000000000006CDC02000000000000000034
:0852300001020304060708094E
:04000005080000B13E
:00000001FF
