:020000040800F2
:1000000070080020794500088145000883450008F4
:1000100000000000000000000000000000000000E0
:1000200000000000000000000000000085450008FE
:100030000000000000000000874500088945000816
:100040008B4500088B4500088B4500088B45000850
:100050008B4500088B4500088B4500088B45000840
:10006000000000008B4500088B4500088B45000808
:100070005D1A00088B4500088B4500088B45000879
:10008000831E000800000000000000008B450008EF
:1000900000000000BD2200088B4500088B450008C9
:1000A000000000008B45000800000000F522000859
:1000B00000F002F800F032F80CA030C8083824181C
:1000C0002D18A246671EAB4654465D46AC4201D190
:1000D00000F024F87E460F3E0FCCB6460126334290
:1000E00000D0FB1AA246AB4633431847645E0000BB
:1000F000845E00000023002400250026103A01D36E
:1001000078C1FBD8520700D330C100D50B607047CF
:100110001FB5C046C0461FBD10B510BD05F0DAF9C9
:100120001146FFF7F5FF02F02AFA05F0F2F903B4E1
:10013000FFF7F2FF03BC05F045FA000010B50121FE
:100140000320400402F090FEFF200002F9490860FD
:10015000012008714871002088710220C8710920AF
:10016000C00602F05BFBF820F2490860012008712C
:100170004871002088710220C871EF4802F04EFBE0
:1001800010BD10B50121022002F08AFE01214804B1
:1001900002F078FE0121C80202F074FE0020E74957
:1001A00008814880102048607D20400108800020A0
:1001B0008872E34802F03CFF01221146E04803F058
:1001C000AFFB1020DF4908700020487001208870C4
:1001D000084604F0D5F8102002F0BDFA0020D749F7
:1001E000088148801E204860D74808800020887217
:1001F000D64802F01DFF01221146D44803F090FBBF
:100200001520D049087003204870012088700846E6
:1002100004F0B6F8152002F09EFA0220C5490860E5
:10022000087103204871002088710220C871C248FB
:1002300002F0F4FAC649C748006804F0ADFA401E5F
:10024000C54908800988491E8A0088180A2104F0D7
:10025000A3FAC24908803120B849088000204880AC
:10026000BD4800884860002008818872BC4802F0C0
:10027000DFFE01221146BA4803F052FB7020B94953
:1002800008800020488004208880B4480088886066
:10029000022088810020C881FF20013008820020D0
:1002A0004882AF4802F0FFFF0121A54802F045FF58
:1002B0000121A64802F041FF0121A94802F03DFFBB
:1002C0000121A74802F05FFF022201219A4802F0B3
:1002D00026FB10BD10B50C2096490860022008715D
:1002E00003204871002088710120C8710920C006D0
:1002F00002F094FA0121880302F0C4FDFF202D30A2
:1003000099490860002048608860C86048610C20F6
:100310000861964803F098FD01229549934803F03F
:10032000BFFF1B2087490870022048700120887099
:10033000084604F025F801218C4803F01CFE012238
:1003400002210920C00602F0EAFA01220321092055
:10035000C00602F0E4FA10BD10B5044621468348F9
:1003600003F0C0FE00BF4021804803F0CDFF00280D
:10037000F9D010BD10B5F0206E4908600320087157
:100380000120487100208871C8710920C00602F060
:1003900045FA012067490860674802F03FFA0121E9
:1003A000480202F06FFD0020724908710861886000
:1003B00008200860042048616F4803F0C7FB04214F
:1003C0006D4803F01CFD012204216B4803F0E5FC9D
:1003D0000C205C4908700420487001208870084691
:1003E00003F0CEFF07221021634803F061FC0722CF
:1003F0002021614803F05CFC072240215E4803F0A5
:1004000057FC072280215C4803F052FC0722FF21A1
:100410000131594803F04CFC0121574803F0B2FB6D
:1004200000BF0121544803F0C2FC0028F9D0524813
:1004300003F096FC10BD10B5504803F0FBFF0320FD
:1004400003F0FBFF4E4803F0FBFF03F0FCFF04F05A
:1004500001F810BDF1B58EB00E9804F069FE0646A5
:100460000022484B04F0EAFB04460D4622462B4688
:100470000020454904F0C1FB22462B460991089013
:100480000020424904F058FE0646099B089A04F0F1
:10049000D5FB0B910A903E483E4905F049F90646C6
:1004A00000223D4B04F048FE02460B4601910090AD
:1004B0000B990A9804F0C2FB0391029005F07AFAB6
:1004C00002460B46059104900020344904F0B6FB27
:1004D000334A344B0791069004F08FFB0991089042
:1004E00004F0C8FD0C900C980FB0F0BD10B5712051
:1004F000FFF732FF2C49C9788810C10F091849103D
:100500004900411A14D029480078401C2749087036
:1005100008460078FA280BDD002008702248C078D1
:10052000042188432049C87021480078FFF714FF50
:1005300010BD0000E8000020000400487401002005
:1005400000040040F0000020E7FD000000440140EE
:10055000C0D8A700480100200400002006000020A9
:10056000002C0140800100205C0100200038014087
:1005700005010500940100200024014055550000AC
:1005800024F4000000804940000014400094D14051
:10059000641161A153AC26C00088B3400068AA4032
:1005A0006666666666127140000000202901002020
:1005B0000900002010B5FE480078401CFC49087076
:1005C0000846007864281DDB00200870F949497846
:1005D0004810C10F091849104900411A0CD0F548BC
:1005E000407802218843F3494870084640788021CA
:1005F0008843F049487005E0EE4840788021084380
:10060000EC494870EB4949788810C10F0918491026
:100610004900411A72D1E74909788811C10F0918B8
:1006200049104900411A6AD1E2494978C811C10FFD
:10063000091849104900411A7ED1DE49097848114C
:10064000C10F091849104900411A76D1DA480088CB
:10065000012189030843D849088008460088012100
:1006600089020843D4490880D2498878C10F091803
:1006700049104900411A0DD0CF480088CF490840A1
:10068000CD490880CE480088012189030843CC4920
:10069000088005E0CA480088CA490840C84908805F
:1006A000C44909788810C10F091849104900411A36
:1006B0000DD0C3480088C3490840C1490880BE48DE
:1006C00000880121C9020843BB49088005E0BA48F7
:1006D0000088BA490840B8490880B6498978C810E6
:1006E000C10F091849104900411A09D0B4480088BF
:1006F0000121C9020843B249088007E0EFE3EFE3B4
:10070000AF480088AD490840AD490880A94909783B
:10071000C810C10F091849104900411A4AD0A84809
:100720000088012189020843A5490880A149C878A9
:10073000C10F0918491001E0FBE3FBE34900411A2E
:100740003ED0A1480078401C9F49087008460078B8
:10075000062807DB084600780A280ADD08460078E4
:10076000102806DA9648008898490840944908807D
:1007700026E095480078062803DB934800780A288D
:1007800003DD9148007810281ADB8D48008801218C
:10079000890208438A4908808B48007814280FDBB7
:1007A0000020894908708348C0784008400081498A
:1007B000C87005E082480088844908408049088064
:1007C0007C494878C10F091849104900411A16D1CF
:1007D000784909784810C10F091849104900411A91
:1007E00006D0774800887A4908407549088006E0B5
:1007F00073480088012149020843714908806D4A05
:1008000012789111CA0F5218521052008A1A15D13B
:10081000684A1278D011C20F121852105200821A70
:100820000CD16748008801214903084364490880C6
:100830000846008867490840614908806048008888
:100840000121090308435E4908805A498978481004
:10085000C10F091849104900411A7DD05E4800783F
:10086000401C5D490870534989788810C10F0918E8
:1008700049104900411A07D05849C978F52903DCC5
:100880005649C9780A2905DA4B4800884D4908407D
:1008900049490880474880788410E00F00194010CB
:1008A0004000201A0DD04D48C078F52809DC4B488F
:1008B000C0780A2805DB4949C878FFF7CBFD002836
:1008C00005DB3D480088464908403B4908803949D6
:1008D00089788810C10F091849104900411A07D0BA
:1008E0003E498978F52903DC3C4989780A2905DAEB
:1008F00031480088354908402F4908802D488078C4
:100900008410E00F001940104000201A0DD0334829
:100910008078F52809DC314880780A2805DB2F49E2
:100920008878FFF797FD002805DB234800882849D1
:100930000840214908801F498978C810C10F09184B
:1009400049104900411A21D023480078012802D1DA
:1009500000202449087000E034E122480078401C5F
:1009600020490870084600780A2804DA1E480078F2
:100970001E494870ECE014201C4948701948007862
:100980001128F7DD002017490870E1E0094989784E
:100990008810C10F091849104900411AEAD00F48C0
:1009A000C078F52803DC0D48C0780A283FDA1FE03C
:1009B000CE00002000000020E6000020FFF700002D
:1009C000E4000020FFBF0000CF000020FFFB00007C
:1009D000FFFD0000FFFE00002701002011010020A4
:1009E000FFDF0000CC0000200900002019010020DA
:1009F000FE480078FE490870FC480078401CFB491E
:100A00000870084600780A2805DA1520F9490870A8
:100A10000320487042E01420F64908704870F348FB
:100A2000007811283ADD0020F049087036E0F249DC
:100A3000C878FFF70FFDF1490860F14800880121EF
:100A400089030843EE490880EC48006800280BDA67
:100A5000EA4800684042E9490860E9480088012105
:100A600049030843E64908800A21E448006803F086
:100A70009DFE002803D11420DE49087006E00A21FB
:100A8000DE48006803F092FEDA4908700A21DB486C
:100A9000006803F08BFEC8B2D6494870D64880780B
:100AA000F52803DCD44880780A281ADAD048007880
:100AB000401CCF490870084600780A2805DA15203E
:100AC000CC4988700420C87042E01420C94988705D
:100AD000C870C748007811283ADD0020C449087062
:100AE00036E0C5498878FFF7B5FCC6490860C448B8
:100AF0000088012189020843C1490880C148006873
:100B000000280BDABF4800684042BE490860BC4874
:100B10000088012149020843B94908800A21B948DF
:100B2000006803F043FE002803D11420B149887007
:100B300006E00A21B348006803F038FEAD4988702A
:100B40000A21B048006803F031FEC8B2A949C87054
:100B5000AD498978C810C10F091849104900411AD8
:100B600013D0AA480078F0280EDBA748807802212D
:100B70008843A54988700020A4490870A24880785D
:100B800008218843A0498870C3E2A04800783C2827
:100B9000FADB9D488078022188439B4988700020B9
:100BA0009A490870984989788810C10F0918491026
:100BB0004900411AE8D0944880780421884392493A
:100BC0008870E1E789480078122807DA88480078B9
:100BD000122803DA8548007885490870864800782D
:100BE000F52803DC844800780A286CDA7F4800780E
:100BF000401C7E4908708248008885490840804929
:100C0000088008460088834908407D490880774865
:100C100000780A2805DA1520764908700120487006
:100C200010E172480078122813DC14207149087012
:100C300048706E4800781128F2DD6F48C078F528BA
:100C4000EEDC6D48C0780A28EADB002067490870AE
:100C5000F8E0664800781C280DDA6748C078F52867
:100C600003DC6548C0780A2805DA15206149087058
:100C700003204870E6E05D480078242813DC5E48D5
:100C8000C078F52803DC5C48C0780A280BDA142009
:100C900058490870487055480078232802DD002024
:100CA00052490870CEE05148007812280ADB5248B9
:100CB000C078F52806DC5048C0780A2802DB0020FE
:100CC0004A490870BEE049480078401C474908700E
:100CD0000846007812284DDC47490878FFF7BAFB30
:100CE000484908604648008801218903084344496F
:100CF00008804448006800280CDA424800684042F6
:100D0000404908603E4800880121490308433C49A6
:100D1000088005E03A4800883D4908403849088085
:100D20000A213848006803F041FD002803D114204F
:100D30003049087006E00A213248006803F036FDA9
:100D40002C4908700A212F48006803F02FFDC8B213
:100D50002849487025480078122873DB2648C07857
:100D6000F5286FDC2448C0780A286BDB00201F4977
:100D7000087067E01D4800781C2819DA1E48C07802
:100D8000F52803DC1C48C0780A2811DA1C480088C2
:100D90001F4908401A490880084600881D49084034
:100DA000174908801520134908700320487049E04E
:100DB0000E480078242836DC0F48C078F52803DC7C
:100DC0000D48C0780A282EDA0D48008810490840DE
:100DD0000B490880084600880E49084008490880E9
:100DE0001420044908704870004815E0CC00002029
:100DF000CD0000201901002011010020C4000020B6
:100E0000E6000020C800002000000020270100208C
:100E1000FFDF0000FFBF00000078232812DD002064
:100E2000FC4908700EE0FB48007812280ADBFA48FB
:100E3000C078F52806DCF848C0780A2802DB0020D4
:100E4000F4490870F4484078F52803DCF24840780B
:100E50000A2871DAF1480078401CF0490870F0481F
:100E60000088F0490840EE49088008460088EE49AD
:100E70000840EB490880E94800780A2805DA15207F
:100E8000EA4988700220C870FEE0E4480078122821
:100E900013DC1420E5498870C870E04800781128F8
:100EA000F2DDDD488078F528EEDCDB4880780A2822
:100EB000EADB0020D9490870E6E0D84800781C2811
:100EC0000FDAD5488078F52803DCD34880780A28E3
:100ED00007DA1520D54988700420C870D4E028E2CC
:100EE000B8E1CE480078242813DCCB488078F52878
:100EF00003DCC94880780A280BDA1420CB498870B3
:100F0000C870C6480078232802DD0020C349087055
:100F1000BAE0C248007812280ADBBF488078F5287A
:100F200006DCBD4880780A2802DB0020BB49087037
:100F3000AAE04DE1FCE0FFE7B8480078401CB74963
:100F400008700846007812284DDCB3494878FFF74E
:100F500081FAB7490860B248008801218902084334
:100F6000AF490880B248006800280CDAB048006831
:100F70004042AF490860AA4800880121490208435D
:100F8000A749088005E0A6480088A6490840A4496A
:100F900008800A21A648006803F008FC002803D155
:100FA0001420A249887006E00A21A148006803F0D5
:100FB000FDFB9E4988700A219D48006803F0F6FBFE
:100FC000C8B29A49C8709548007812285CDB9248EC
:100FD0008078F52858DC904880780A2854DB002077
:100FE0008E49087050E08D4800781C2819DA8A482C
:100FF0008078F52803DC884880780A2811DA884848
:101000000088884908408649088008460088864943
:101010000840834908801520844988700420C870DE
:1010200032E07E48007824281FDC7B488078F52851
:1010300003DC794880780A2817DA794800887949EA
:101040000840774908800846008877490840744975
:101050000880142075498870C8707048007823286B
:1010600012DD00206D4908700EE06C4800781228EF
:101070000ADB69488078F52806DC674880780A280A
:1010800002DB0020654908706A494878C10F0918D9
:1010900049104900411A1DD067480078401C664934
:1010A0000870084600780A2807DA64480088012199
:1010B00049020843614908800CE0604800885949AA
:1010C00008405E4908805C480078122802DB002056
:1010D0005949087057490978C811C10F09184910B2
:1010E0004900411A15D056480078401C54490870F0
:1010F00052480088534908405049088050480078B9
:10110000132807DA08460088FF21013108434B49BC
:10111000088079E1494800884B49084047490880E0
:10112000474800783628F4DB0020454908706BE119
:1011300014203E49087048708870C870384800888C
:101140004249084036490880084600883649084028
:1011500033490880084600883A49084030490880E9
:10116000084600882F4908402D49088033480088E8
:1011700036490840314908802948008834490840E8
:10118000274908802D480088314908402B490880AC
:1011900008460088244908402849088008460088F5
:1011A000204908402549088008460088254908400C
:1011B0002249088008460088234908401F490880C2
:1011C000084600880121090308431C4908801BE1E7
:1011D00015201649087017204870152088701720B0
:1011E000C8700F480088194908400D490880084612
:1011F00000880D4908400A490880084600881149BE
:101200000840074908800846008806490840044904
:101210000880F9E0CC00002011010020CD00002062
:10122000E6000020FFFD0000FFFB00001901002088
:10123000C80000200000002026010020E40000205B
:1012400025010020FFDF0000FFFE0000FFBF0000BF
:10125000FFF70000FE480078401CFD49087014208C
:10126000FC49087048708870C870FB480088FB49CA
:101270000840F949088008460088F9490840F649BD
:10128000088008460088F7490840F3490880084666
:101290000088F5490840F0490880F4480088EF4983
:1012A0000840F2490880EC480088F1490840EA49C2
:1012B0000880EE480088EE490840EC49088008465E
:1012C0000088E7490840E949088008460088E6495F
:1012D0000840E649088008460088E2490840E3499A
:1012E000088008460088E3490840E0490880D8485B
:1012F0000078062807DBD64800780B280BDBD4489B
:101300000078102807DAD9480088FF210131084306
:10131000D649088078E0D5480088D7490840D349A5
:101320000880CB4800781E286EDB0020C849087072
:101330006AE00820C749087048708870C870C648BD
:101340000088012189030843C349088008460088B2
:10135000012189020843C04908800846008801210C
:1013600049030843BC490880084600880121490216
:101370000843B9490880BD48008801218903084312
:10138000BA490880B44800880121C9020843B2491B
:101390000880B64800880121C9020843B349088083
:1013A00008460088012189020843B04908800846A0
:1013B0000088012149020843AC490880084600889A
:1013C000012149030843A949088008460088FF21F4
:1013D00001310843A5490880084600880121090316
:1013E0000843A2490880A5480078401CA34908701A
:1013F00008460078F02807D100200870A0484078FF
:10140000042188439E4948709D4880788021084384
:101410009B49887010BD10B5994909788810C10F93
:10142000091849104900411A20D1954880780221B5
:10143000084393498870084680780421884390497E
:10144000887008468078082188438D49887000207C
:101450008C49087013207F4908700E2048700C20BA
:1014600088700D20C8704820FEF776FF10BD10B5BB
:101470000446002C74D06AE0322003F03CF8824825
:101480000078401C804908707D498978C810C10FD8
:10149000091849104900411A2AD000207A490870D9
:1014A0007A4948604720FEF757FF75488078022147
:1014B000084373498870084680780421884370493E
:1014C000887000206F490870714908706C48C078B6
:1014D000042108436A49C8706E480078401C6D4971
:1014E000087008460078072831DB012008702EE0DC
:1014F0006548007814282ADD6448406866494978C0
:10150000884224D90020604908706049486047201B
:10151000FEF722FF5A488078022108435849887014
:1015200008468078042188435549887008468078A9
:10153000082108435249887000205249087014203D
:10154000444908708870C8705248007848704F4805
:1015500040685149497888428ED800204A4908702D
:1015600010BD10B50446002C70D0B7E0322002F058
:10157000C2FF4A480078401C484908700846007875
:101580001428F2DD41488068434989788842ECD9C3
:101590000020424908703A488078022108433849BF
:1015A0008870084680780421884335498870084649
:1015B00080780821884332498870002031490870BA
:1015C0000F2024490870102048700C2088702C4986
:1015D0000978C810C10F091849104900411A0CD0E8
:1015E0002748007808218843254908700E201949AA
:1015F000C8706C20FEF7B0FE0BE02148007808218F
:1016000008431F4908700D201249C8704C20FEF78E
:10161000A3FE5DE0322002F06EFF20480078401CFF
:101620001E49087008460078B42851DD1C488078AF
:1016300001284DD100200870144988605620FEF71B
:101640008BFE0F488078022108432BE050E0000019
:101650002401002019010020E6000020FFBF000047
:10166000FFFB0000FFDF0000FFFD0000E4000020A2
:10167000FFF70000FFEF0000FFFE00002801002040
:1016800000000020270100202A010020F401002092
:1016900029010020090000200A0100202B01002060
:1016A000F4000020FB4988700846807804218843B4
:1016B000F84988700846807808218843F549887081
:1016C0000020F5490870F549087048708870C870A6
:1016D000F3488068F349897888429BD8F04880684D
:1016E000F0498978884200D940E70020EE49087027
:1016F00010BD10B50446002C54D0E948C068E94933
:10170000C97888424ED9C82002F0F5FEE74A5279DE
:10171000012A48D1DF4A12785111CA0F52185210CB
:1017200052008A1A3FD1DB4A1278D010C20F121829
:1017300052105200821A36D12BE0322002F0DBFE2A
:10174000DB480078401CDA4908700A4612782E2AD5
:101750001FDDD64A5279012A1BD1CE4A1278511187
:10176000CA0F5218521052008A1A12D1C94A12785E
:10177000D010C20F121852105200821A09D1002044
:10178000CB490870C649C8604720FEF7E5FDFFF762
:1017900042FEC348C068C349C9788842CDD80020FA
:1017A000C349087055E00020BD49C860B94A517866
:1017B000CA0F5218521052008A1A47D1B54A1278ED
:1017C000D010C20F121852105200821A3ED1B148E6
:1017D000807802210843AF49887008468078042148
:1017E0008843AC4988700846807808218843A94915
:1017F00088700020A84908700A20A84908700B20AA
:1018000048700C208870A34909784810C10F091846
:1018100049104900411A0CD09E48007802218843A3
:101820009C4908700D209D49C8706D20FEF794FDFD
:101830000FE09848007802210843964908700E206E
:101840009649C8704D20FEF787FD02E04120FEF763
:1018500083FD10BD10B50446002C4ED044E032206C
:1018600002F049FE93480078401C924908700846EF
:10187000007814281DD18A4800698A49097988426C
:1018800017D94720FEF768FD824880780221084377
:101890008049887008468078042108437D49887013
:1018A00008468078082188437A49887000207A4960
:1018B000087080480078642816DD79480069794905
:1018C0000979884210D900207A4908707449086162
:1018D0004720FEF741FD0020774908706D484078A9
:1018E000042108436B4948706D4800696D490979C6
:1018F0008842B4D800206F49087010BD10B5044666
:10190000002C58D06648406966494979884252D9C6
:10191000C82002F0F0FD654AD278012A4CD15D4A18
:1019200012785111CA0F5218521052008A1A43D11C
:10193000584A1278D010C20F121852105200821A50
:101940003AD12FE0322002F0D6FD5C480078401CEE
:101950005A4908700A4612782E2A23DD534AD27853
:10196000012A1FD14B4A12785111CA0F5218521036
:1019700052008A1A16D1474A1278D010C20F121894
:1019800052105200821A0DD100204C49087044496F
:1019900048614648C078012804D14720FEF7DCFCA6
:1019A000FFF739FD3E4840693E4949798842C9D828
:1019B00000204249087050E000203949486135490B
:1019C00009788811C10F091849104900411A44D1FA
:1019D000304909784811C10F091849104900411AC6
:1019E0001CD02C480078202188432A490870702098
:1019F000FEF7B2FC324800783249087000203249C4
:101A000008702448C078042108432249C870084659
:101A10004078202108431F49487018E01D4800788D
:101A2000202108431B4908705020FEF795FC2548EB
:101A300000782349087003202249087000202249B9
:101A400008701448C078042108431249C87011482E
:101A50008078102108430F49887010BD70B50421AB
:101A60001A4802F0BCF900287ED00421174802F081
:101A7000C6F91748007801282ED1144802F075F9EC
:101A80000849487001201349087002201049087065
:101A900064E0000000000020270100201901002060
:101AA000F40100200A0100202B010020F400002096
:101AB0002C0100202D010020280100202E010020F3
:101AC0000A00002009000020290100200024014014
:101AD000C1000020FA000020FE48007802280BD147
:101AE000FD4802F042F9FD4988700220FC49087067
:101AF0000320F849087031E0F648007803280BD13C
:101B0000F54802F032F9F549C8700320F44908702D
:101B10000420F049087021E0EE48007804280BD139
:101B2000ED4802F022F9ED4908710420EC490870F3
:101B30000520E849087011E0E648007805280DD135
:101B4000E54802F012F9E54948710520E4490870BA
:101B5000E14802F000F90120DE490870DF48E04961
:101B60000978405CDE4900E08AE109788900DD4AB5
:101B70005158884270D2DC48D9490978405C401CF1
:101B8000D949D74A127888540020D849D44A1278C3
:101B90008854D748407800280BD1D5488078002851
:101BA00007D1D348C078002803D1D1480079002854
:101BB0000FD0CF484078002877D1CD4880780028D2
:101BC00073D1CB48007900286FD1C94840790028EB
:101BD0006BD1C548C2490978405C0F2865DDC04813
:101BE0000078012803D1C248407800281FD0BC48A3
:101BF0000078022803D1BE488078002817D0B84862
:101C00000078032803D1BA48C07800280FD0B44820
:101C10000078042803D1B6480079002807D0B048DE
:101C20000078052841D1B248407900283DD10120F3
:101C3000AF49AB4A12788854A848A9490978405C52
:101C4000A74909788900AB4A50500020A649A44A08
:101C50001278885429E0FFE7A048A1490978405C40
:101C60009F4909788900A44A515888421DD99F4844
:101C70009B490978405C401CC1B29C48984A127844
:101C8000815400219848964A127881549748944983
:101C90000978405C052808DD00209449904A1278B4
:101CA000885493498E4A1278885491484078012884
:101CB0000FD08F48807801280BD08D48C07801283C
:101CC00007D08B480079012803D089484079012842
:101CD00026D18A480068401C884908600846006888
:101CE000874988421FD300208449086085490860DD
:101CF0008549086001240DE00020A100834A50506E
:101D0000A100784A5050A1007B4A505078490855AC
:101D1000601CC4B2062CEFDB00207D49087002E095
:101D200000207649086078480068401C76490860C1
:101D3000744800687D214901884207D8052500269E
:101D400070480068401C6F49086002E07D252D0244
:101D500000266D4800680021401BB1416FD3002070
:101D60006949086001240AE0A000684908585B49F5
:101D7000095D4018A100654A5050601CC4B2062C91
:101D8000F2DB63480078401C61490870084600781F
:101D9000642872DB01246BE05A4800687D21490108
:101DA000884214D8A100594A5058642102F0F4FC2A
:101DB000401FA1004B4A5050A100544A5058642182
:101DC00002F0EAFCC01EA1004B4A50504AE0A100BC
:101DD0004E4A5058642102F0DFFC401FA100414AE6
:101DE0005158884206D9A00011460858401CA1004D
:101DF000505011E0A100454A5058642102F0CCFC3B
:101E0000401FA100374A5158884205D2A000114610
:101E10000858401EA1005050A1003C4A505864216F
:101E200002F0BAFCC01EA100334A5158884207D9BB
:101E3000A00011460858401CA100505012E01CE0C0
:101E4000A100324A5058642102F0A6FCC01EA10035
:101E5000294A5158884205D2A00011460858401E10
:101E6000A10050500020A100284A5050601CC4B26C
:101E7000062C91DB002026490870174801F070FFFE
:101E800070BD10B52348008AC007C00F75D0092067
:101E9000C006808AC0B20921C90688821E48808A8D
:101EA0001E4908401C4988821D4989780811C10FC4
:101EB000091849104900411A0AD000201949087030
:101EC0001949087016488078102188431449887091
:101ED000134A2BE0C1000020002401400A01002029
:101EE000FA000020C4010020FB00002001010020B6
:101EF000F4000020F4010020DC010020D4000020C8
:101F000040420F00D8000020D0000020AC0100208B
:101F100007010020000400400004004807FF000003
:101F200000000020DD000020DE000020527851116A
:101F3000CA0F5218521052008A1A74D0FD4A5278B1
:101F4000D010C20F121852105200821A6BD1092001
:101F5000C006808AF849F94A1278895C0902084368
:101F60000921C9068882F4482930F4490978405C7F
:101F7000F34908700846007800E09CE1030003F094
:101F800053FB06040B151C232A31EE48808A0821D6
:101F90000843EC49888226E00920C006808A012196
:101FA000C90308430921C90688821CE0E548808AE4
:101FB00020210843E349888215E0E248808A4021D5
:101FC0000843E04988820EE0DE48808A10210843F9
:101FD000DC49888207E0DB48808A80210843D949B0
:101FE000888200E000BF00BFD7480078401CD64977
:101FF0000870084600781E2806DD00200870CF48CB
:102000000078401CCD490870CC4800782A2808DBAD
:102010000020CA490870C748407820218843C54934
:10202000487042E1FFE7C3494978C810C10F091859
:1020300049104900411A6AD0BE4949780811C10FB8
:10204000091849104900411AEBD00920C006808ABE
:10205000B949BA4A1278895C08430921C9068882BD
:10206000B5482930B5490978405CB549087008463B
:102070000078030003F0D8FA06040B151C232A315C
:10208000B048808A08210843AE49888226E00920AA
:10209000C006808A0121C90308430921C906888234
:1020A0001CE0A848808A20210843A649888215E0C0
:1020B000A448808A40210843A24988820EE0A148B2
:1020C000808A102108439F49888207E09D48808AC2
:1020D000802108439B49888200E000BF00BF9548EB
:1020E0004078102188439349487094480078401CF8
:1020F0009249087008460078292892D1002008707B
:102100008C484078082188438A494870CDE0894945
:102110008978C811C10F091849104900411A1AD00D
:102120008448807880218843824988708748007875
:10213000874908708548407848708448807888705E
:102140008248C078C87083480088834908808348E3
:102150000088834908807A48007800280ED1092039
:10216000C006808A7A49764A1278895C7D4A515C39
:10217000090208430921C906888253E070480078A3
:1021800001280ED10920C006808A71496C4A127854
:10219000895C754A515C090208430921C906888295
:1021A00040E06748007802280ED10920C006808AE6
:1021B0006749634A1278895C6C4A515C090208439A
:1021C0000921C90688822DE05D48007803280ED1D8
:1021D0000920C006808A5E49594A1278895C644A9F
:1021E000515C090208430921C90688821AE0544853
:1021F0000078042809D10920C006808A5649098838
:1022000008430921C90688820CE04D48007805285A
:1022100008D10920C006808A51490988084309214C
:10222000C906888246480078030003F0FDF90604D9
:102230000B151C232A314348808A08210843414951
:10224000888226E00920C006808A0121C90308434C
:102250000921C90688821CE03A48808A2021084367
:102260003849888215E03748808A4021084335493B
:1022700088820EE03348808A1021084331498882E1
:1022800007E03048808A802108432E49888200E098
:1022900000BF00BF2A480078401C29490870084642
:1022A0000078062801D1002008703248008A4008D2
:1022B00040003049088202F0C6F810BD10B52E4823
:1022C000008AC007C00F12D01A4949784811C10FBF
:1022D000091849104900411A03D1FEF76BF9FEF7BE
:1022E00005F92548008A400840002349088202F089
:1022F000AAF810BD10B504E0204801F0F7FE20490F
:10230000087020491D4802F00AF80028F4D11E4840
:102310000078002852D000201B4908701B48006834
:10232000002835D0012838D002283BD0032843D1DB
:102330003DE00000000000206F000020DE000020D3
:10234000DC00002000040048DD000020190100200E
:1023500015010020E4000020E0000020E60000203D
:10236000E20000200B000020240000203D0000209F
:1023700056000020000400400044014000380140A5
:102380001001002005010500DF00002020010020D1
:10239000F4480078F44908700EE0F2480078F249F9
:1023A000487009E0EF480078EF49887004E0ED4894
:1023B0000078ED49C87000BF00BF10BDE948007843
:1023C0005A286FD014DC48286DD008DC43283FD051
:1023D00044284BD045282DD0462873D124E04C28E2
:1023E00052D04D2860D0522817D05428F5D128E07B
:1023F0006D2860D008DC632831D064283DD068287F
:1024000061D06C28E9D146E071287AD0742879D05F
:10241000782878D07A28E0D176E00120D349087076
:102420000020D3490860A7E00120D0490870D049B6
:102430000860A1E00120CD4908700220CC49086065
:102440009AE00120C94908700320C949086093E057
:10245000C848807801210843C64988708CE0C54887
:10246000807840084000C349887085E0C1484078C2
:1024700001210843BF4948707EE0BE4840784008CB
:102480004000BC49487077E0BA480078082108430A
:10249000B849087070E0B748007808218843B5490A
:1024A000087069E01DE015E0B24800780221084399
:1024B000B049087060E0AF48007802218843AD4918
:1024C000087059E057E0AB48007804218843A949D7
:1024D000087051E0A748007804210843A549087016
:1024E0004AE0A448007840210843A2490870084601
:1024F0000078802188439F49087000209E49087019
:102500003AE01EE010E029E09A4800784021884334
:10251000984908700846007880210843954908705A
:1025200000209649087027E09248007840218843AF
:102530009049087008460078802188438D490870CA
:102540001AE08C484078022108438A4948700846BE
:10255000407880218843874948700DE0854840785D
:1025600008210843834948700846407810210843F1
:102570008049487000E000BF00BF00BF1DE7302069
:1025800001F07CFF642001F0B6FFFDF7D7FDFDF7F9
:10259000F8FDFDF79FFEFDF74EFF764840782021BD
:1025A00008437449487008460078202188437149DF
:1025B0000870642001F09FFFFDF7DCFECAE06D4962
:1025C00009788811C10F091849104900411AF5D13D
:1025D0006B480078030003F027F80627040B121954
:1025E00020276849664A1278885CFEF740FF1CE0A5
:1025F0006449634A1278885CFEF7B3FF15E06149CD
:102600005F4A1278885CFFF774F80EE05D495C4A17
:102610001278885CFFF71EF907E05A49584A127889
:10262000885CFFF76BF900E000BF00BF54480078FA
:10263000401C5349087008460078062801DB012039
:1026400008704C490978C810C10F09184910490091
:10265000411A4FD0641C012C08D100214948484A36
:102660001278815403204649087003E0022044494F
:10267000087000244348407801280BD04148C078B6
:10268000012807D03F480079012803D03D48407910
:10269000012814D13749C9784810C10F09184910C9
:1026A0004900411A0BD03348C07801210843314911
:1026B000C8700846C078022188432E49C870314846
:1026C0004078002822D12F48807800281ED12D483C
:1026D000C07800281AD12B480079002816D1294843
:1026E0004079002812D12348C078022108432149AB
:1026F000C8700BE01F4909784811C10F091849102B
:102700004900411A02D005201D490870194A517824
:10271000CA0F5218521052008A1A1BD0154A12784A
:102720005011C20F121852105200821A12D01148C2
:102730000078202188430F49087013480078134916
:1027400008700020124908700A48C0780421084324
:102750000849C87033E7C206D20E012191400D4AE4
:10276000116070471001002011010020DF000020DF
:10277000200100200000002025010020240100206D
:1027800008000020F40000200A00002009000020BA
:102790002901002000E100E010B504460920C00630
:1027A000844209D10121480400F088FB0021012066
:1027B000400400F083FB30E06A48844208D10121E4
:1027C000000200F07BFB0021200200F077FB24E0F8
:1027D0006548844208D10121000200F06FFB00210E
:1027E000200200F06BFB18E06048844209D101210F
:1027F000080500F063FB00210120000500F05EFBEE
:102800000BE05B48844208D10121880500F056FBAB
:1028100000210120800500F051FB10BDF0B50A46F3
:1028200000210023002400BF3DE001258D402B4600
:1028300015681D402C469C4234D11579012D02D0DB
:102840001579022D16D185684F000326BE40B54389
:10285000856055794E00B54086683543856085882A
:1028600001268E40B5438580858896798E40B6B224
:102870003543858005684F000326BE40B54305609B
:1028800015794E00B540066835430560C5684F00B0
:102890000326BE40B543C560D5794E00B540C66835
:1028A0003543C560491C1029BFD3F0BD31490160D3
:1028B000002101710221417100218171C1717047B4
:1028C0000122120413460B431A46C261C161C26160
:1028D000C269C269704702460020138A0B4201D0C8
:1028E000012000E0002070470146088A7047024638
:1028F0000020938A0B4201D0012000E000207047A5
:102900000146888A70478161704701857047002AB7
:1029100001D0816100E00185704781827047F0B588
:10292000002300244D07EE0E1546B5402B46CD1072
:10293000AE0005462035AD594E07F70E0F26BE40B6
:10294000B543CE10B60007462037BD51CD10AE00BE
:102950003D46AD591D432C46CD10AD003E46745149
:10296000F0BD00000004004800080048000C0048CA
:1029700000140048FFFF0000FB48006801210843E5
:10298000F949086008464068F8490840F649486037
:1029900008460068F6490840F349086008460068A0
:1029A000012189048843F0490860084640683F21B6
:1029B00009048843EC4948600846C06A00090001E0
:1029C000C8620846006BFF2154318843E64908631A
:1029D0000846406B4008400048630020886070470C
:1029E0000021E14A917011468870704710B5024687
:1029F0000021002300205111002902D1DA4C236864
:102A00000BE0012902D1D84C236A06E0022902D149
:102A1000D54C636A01E0D44C636BD106C90E012426
:102A20008C401C4201D0012000E0002010BD70B598
:102A300000240026002500BF1120FFF7D7FF054620
:102A4000641C05200003844201D0002DF4D0112025
:102A5000FFF7CCFF002801D0012600E00026304619
:102A600070BD01460020C04A1068F82302469A4310
:102A70001046CA001043BC4A10607047002806D0B8
:102A8000B949096801221143B74A116005E0B64906
:102A9000096849084900B44A11607047014600209E
:102AA000B14A506BF82302469A431046CA001043BD
:102AB000AD4A50637047002806D0AB49496B0122EC
:102AC0001143A94A516305E0A749496B49084900E8
:102AD000A54A51637047002806D0A349496B0422D8
:102AE0009143A14A516305E09F49496B0422114378
:102AF0009D4A516370479C49096A490849009A4AAE
:102B000011621146096A04229143974A11621146E3
:102B1000096A0143116270479349096A1822914377
:102B2000914A11621146096A0143116270470028F7
:102B300006D08D49496A012211438B4A516205E052
:102B40008949496A49084900874A51627047864A5B
:102B500052683D231B049A43834B5A601A465268BD
:102B600003460B431A43804B5A607047002807D036
:102B70007D4909680122120611437B4A116006E073
:102B800079490968012212069143774A116070471A
:102B900001460020744AD06A0009000102460A4337
:102BA0001046714AD0627047002807D06E49096804
:102BB0000122D20411436C4A116006E06A49096897
:102BC0000122D2049143684A116070476649C87176
:102BD000704701460020644A506880088000024621
:102BE0000A431046604A506070475F4840680C21B5
:102BF00008407047014600205B4A5068F0230246B7
:102C00009A43104602460A431046574A506070479E
:102C100001460020544A506807231B0202469A438B
:102C2000104602460A4310464F4A506070474E49CC
:102C300049680122920391434B4A51601146496809
:102C400082B21143484A51601146096B9215914373
:102C5000454A11631146096B020C1143424A116344
:102C600070474149096B402291433F4A1163114625
:102C7000096B0143116370473B49096B1022914373
:102C8000394A11631146096B014311637047364994
:102C9000096B89088900344A11631146096B0143A5
:102CA00011637047FEB50446002500260020019000
:102CB000009000272C4840680C2108400546002D54
:102CC00004D0042D05D0082D28D105E02948206026
:102CD00027E02948206024E0234840680F21890428
:102CE0000840064620484068012109040840019038
:102CF000B00C861C0198002803D11F487043206047
:102D00000BE01948C06A0007000F401C00901A48E9
:102D1000009901F041FD7043206002E015482060F9
:102D200000BF00BF10484068F021084005462D094B
:102D30001248475D2068F84060600B4840680721F2
:102D40000902084005462D0A0C48475D6068F840B6
:102D5000A0600548006BFF2101310840884211D076
:102D60000748E0601CE00000001002400CB8FFF8CB
:102D7000FFFFF6FE00127A0000093D002F0100203F
:102D8000809FD5007448406801218903084088422B
:102D900003D0A0684008E06002E0A0688008E0601E
:102DA0006D48006B40210840402802D06B482061EC
:102DB00002E00120C00320616748006B1021084039
:102DC000102802D06648606101E0206860616248B6
:102DD000006B8007800F02D1A068A06119E05E48F7
:102DE000006B8007800F012802D12068A06110E0ED
:102DF0005948006B8007800F022802D18003A06130
:102E000007E05548006B8007800F032801D1544824
:102E1000A061FEBD5049096A01434F4A11627047E3
:102E2000002807D04C49096A0122D20311434A4ABB
:102E3000116206E04849096A0122D2039143464AD9
:102E400011627047002807D04349096A0122120421
:102E50001143414A116206E03F49096A0122120406
:102E600091433D4A11627047002905D03A4A5269A0
:102E70000243394B5A6104E0374A52698243364B68
:102E80005A617047002905D0334A92690243324B98
:102E90009A6104E0304A926982432F4B9A617047ED
:102EA000002905D02C4AD26902432B4BDA6104E099
:102EB000294AD2698243284BDA617047002905D03C
:102EC000254A926A0243244B9A6204E0224A926A9B
:102ED0008243214B9A627047002905D01E4AD2686E
:102EE00002431D4BDA6004E01B4AD26882431A4B4E
:102EF000DA607047002905D0174A12690243164B61
:102F00001A6104E0144A12698243134B1A61704734
:102F1000002905D0104A527A02430F4B5A7204E03E
:102F20000D4A527A82430C4B5A7270470A48406AE3
:102F300001210906084308494862704701460020FC
:102F4000054A92680A4201D0012000E00020704743
:102F50000149887270470000001002401280000092
:102F600000127A0010B50446FE48844208D10121BF
:102F7000C014FFF7B1FF0021E014FFF7ADFF56E0EA
:102F800001208007844208D101210846FFF7B2FFE3
:102F900000210120FFF7AEFF49E0F348844208D149
:102FA00001210220FFF7A6FF00210220FFF7A2FF68
:102FB0003DE0EE48844208D101211020FFF79AFF3E
:102FC00000211020FFF796FF31E0E948844208D144
:102FD00001218015FFF78EFF0021A015FFF78AFF62
:102FE00025E0E448844209D101210804FFF774FF79
:102FF000002101200004FFF76FFF18E0DE48844243
:1030000009D101214804FFF767FF00210120400496
:10301000FFF762FF0BE0D948844208D10121880400
:10302000FFF75AFF002101208004FFF755FF10BD74
:1030300000220288CB4B984206D001239B0798427E
:1030400002D0C94B984203D1CD4B1A404B881A434A
:10305000C64B984203D0CB4B1A400B891A430280CF
:103060004B68C3620B880385BE4B984208D0C14BA6
:10307000984205D0C04B984202D0C04B984201D133
:103080008B7A03860123838270470021C943416004
:103090000021018001814180817270470185828217
:1030A00070470A4600210188B54B19400B4613436F
:1030B00019460180704741627047C16270470146FE
:1030C000486A70470146088D7047002904D002887D
:1030D00002231A43028004E00288A94B6E331A408F
:1030E00002807047002904D0028804231A4302801A
:1030F00004E00288A24B6C331A400280704700291A
:1031000004D0028880231A43028004E002889C4B8A
:10311000103B1A40028070470288994B68331A406E
:10312000028002880A43028070470288954B1A4049
:10313000028002880A4302807047002904D0028876
:1031400001231A43028004E002888D4B6F331A403A
:10315000028070470A884B881A438B881A43CB88B1
:103160001A430B891A434B891A438B891A43442308
:103170001A5270470021018041808180C180018105
:10318000418181817047002907D04422125A0123CE
:10319000DB031A4344231A5205E04422125A530413
:1031A0005B0C44221352704770B5002400220023A8
:1031B000058C734E6F3635400584028C8388048BF2
:1031C0006F4D2C40B51E2C400D882C43751E2A4097
:1031D0008D892A434D882A43624DA84208D0654D07
:1031E000A84205D0644DA84202D0644DA84212D135
:1031F000634D68352A40CD892A43614D6C352A409C
:103200008D882A435E4D903D2B405F4D2B400D8AAB
:103210002B434D8A2B43838004838D68456302844E
:1032200070BD70B5002400220023058C544E60361A
:1032300035400584028C8388048B544D2C40514DBD
:103240002C400D882D062D0C2C434D4D50352A4019
:103250008D892D052D0C2A434D882D052D0C2A43D3
:10326000404DA84219D1464D103D2A40CD892D052B
:103270002D0C2A43424D30352A408D882D052D0CCA
:103280002A43434D2B40434D2B400D8AAD042D0C5A
:103290002B434D8AAD042D0C2B43838004838D6812
:1032A0008563028470BD70B5002400220023058C64
:1032B000334E903E35400584028C8388848B304D9C
:1032C0002C402F4D6D352C400D882C432E4D2A401F
:1032D0008D892D062D0C2A434D882D062D0C2A4351
:1032E000204DA84217D12B4D2A40CD892D062D0CFB
:1032F0002A43274D2A408D882D062D0C2A43264D22
:103300002B40264D2B400D8A2D052D0C2B434D8A2D
:103310002D052D0C2B43838084838D68C563028427
:1033200070BD70B5002200230024058C1A4E354074
:103330000584038C8488828B144D2A40114D2A40C9
:103340000D882D062D0C2A43144D2B408D892D07F9
:103350002D0C2B434D882D072D0C2B43014DA842DE
:1033600024D11DE0002C014000040040001000406A
:10337000002000400040014000440140004801405E
:103380008FFF0000FFFC0000FFFD0000FF8F00002A
:10339000FFFB0000FFF70000FFEF0000FFDF000071
:1033A000FC4D2C400D8AAD052D0C2C43848082836E
:1033B0008D680564038470BD002101804180818097
:1033C00081608181C18101824182704770B503466D
:1033D000002000241846183001258D40ACB21D8C09
:1033E000A5431D84002901D0082909D14D102818B2
:1033F00005687026B54305600568154305600DE056
:103400000D1F2D046D0C2818056807263603B543DB
:10341000056005681606360C3543056070BD4163CE
:10342000704781637047C1637047016470470A4603
:103430000021018BD84B19400B46134319460183D9
:1034400070470A460021018BD44B194013061B0C10
:103450001943018370470A460021818BCE4B1940E6
:103460000B4613431946818370470A460021818B1E
:10347000CA4B194013061B0C19438183704700295E
:1034800004D0828801231A43828004E08288C24BE0
:103490006F331A40828070470A460021018BBE4B71
:1034A000683319400B4613431946018370470A4697
:1034B0000021018BBA4B194013061B0C19430183E1
:1034C00070470A460021818BB34B683319400B4685
:1034D00013431946818370470A460021818BB04B04
:1034E000194013061B0C1943818370470A460021BB
:1034F000018BA94B6C3319400B46134319460183CA
:1035000070470A460021018BA64B194013061B0C7D
:103510001943018370470A460021818B9E4B6C330F
:1035200019400B4613431946818370470A46002110
:10353000818B9C4B194013061B0C194381837047E8
:103540000A460021018B944B103B19400B46134354
:103550001946018370470A460021018B4904490C32
:1035600013061B0C1943018370470A460021818B07
:10357000894B103B19400B46134319468183704712
:103580000A460021818B4904490C13061B0C194380
:10359000818370470A460021018C7F4B6E331940AE
:1035A0000B4613431946018470470A460021018CDB
:1035B000794B683319400B46134319460184704711
:1035C0000A460021018C744B5033194013051B0C23
:1035D0001943018470470A460021018C6E4B103B51
:1035E000194013051B0C1943018470470A4600213A
:1035F000018C6D4B194013061B0C19430184704755
:103600000A460021018C664B194013061B0C194316
:10361000018470470A460021018C644B194013074E
:103620001B0C19430184704702895B4B68331A40B5
:10363000028102890A430281704730B500230124C8
:103640008C40A3B2048C9C430484048C15468D40AA
:10365000ADB22C43048430BD30B5002304248C402B
:10366000A3B2048C9C430484048C15468D40ADB2F7
:103670002C43048430BD002904D0828804231A43DB
:10368000828004E08288444B6C331A408280704709
:10369000828B474B1A408283828B0B061B0C1A438A
:1036A00082837047F8B50C4600210025002600965D
:1036B000068C404F3E400684818B058C2607360CD5
:1036C00000963D4E31401606360C31431E07360C2F
:1036D00031433A4E354001273F03009E3E43354378
:1036E00081830584F8BD828B2B4B64331A4082831F
:1036F000828B0A4382837047F8B50C46002100256F
:1037000000260096068C244F903F3E400684818B15
:10371000058C2606360C00961F4E833E31401E0552
:10372000360C16433143264E3540FF270137009EA5
:103730003E43354381830584F8BD028B1C4B1A4000
:103740000283028B0B061B0C1A4302837047F8B5E9
:103750000C460021002500260096068C0E4F60378F
:103760003E400684018B058C2605360C0096124ED1
:1037700031401E07360C31431606360C3143064ED7
:10378000303E35401027009E3E433543018305847B
:10379000F8BD0000FFBF00008FFF0000FF8F00009A
:1037A000FFF70000FFFB0000FFFD0000FFDF00004F
:1037B000FFF30000FFEF0000FF0C0000FF5F0000C0
:1037C000FFF50000028BD84B1A400283028B0A439C
:1037D00002837047F0B50C4600210025068CD24FBD
:1037E0000B373E400684018B058CCF4EE73E3140BF
:1037F0001E05360C16433143CB4EB61C3540012610
:103800002643354301830584F0BD70B505460C465B
:10381000208800280AD12389A28861882846FFF7DA
:10382000D9FFE1882846FFF7CDFF25E0208804284E
:103830000AD12389A28861882846FFF788FFE1889A
:103840002846FFF77AFF17E0208808280AD1238945
:10385000A28861882846FFF74FFFE1882846FFF7D6
:1038600042FF09E02389A28861882846FFF71AFFF2
:10387000E1882846FFF70CFF70BD002101804180E0
:10388000012181800021C18001817047F8B5054682
:103890000C46002601276088002801D1022600E09E
:1038A0000026A088012801D1022700E001272088F6
:1038B000002814D12389A28861882846FFF78AFF4F
:1038C000E1882846FFF77EFF23893A46314628469D
:1038D000FFF73DFFE1882846FFF72FFF13E023891C
:1038E000A28861882846FFF732FFE1882846FFF763
:1038F00024FF23893A4631462846FFF76BFFE188CB
:103900002846FFF75FFFF8BD0146486B7047014648
:10391000886B70470146C86B70470146086C70475A
:10392000002A03D083890B43838102E083898B4380
:10393000838170478182704702460020138A0B42C0
:1039400001D0012000E000207047CA430282704786
:1039500030B50246002000230024158A0D402B4676
:1039600095890D402C46002B03D0002C01D001205E
:1039700000E0002030BDCA430282704710B50B46FC
:1039800013434824235210BD002A03D083890B43DC
:10399000838102E083898B4383817047002904D0AF
:1039A000828808231A43828004E082885E4B1B1DB4
:1039B0001A408280704701895B4A521D1140018183
:1039C00070470A4600210189574B643B19400B465A
:1039D000134319460181704730B504460D46294608
:1039E0002046FFF7EEFF208907210843208130BDE4
:1039F000F8B504460D4616461F46602D06D13B46D7
:103A0000012231462046FFF7A2FE05E03B46012297
:103A100031462046FFF7DEFE29462046FFF7D1FF5C
:103A20002089072108432081F8BD30B50C460021CC
:103A30000189C9B21D062D0C154325432943018177
:103A400030BDFFB505460E46174600243A463146BE
:103A50002846039BFFF7E9FF2C893348401D0440AB
:103A600007200443304864380440702004432C810C
:103A7000FFBDF0B504460D4616461F463B4632468E
:103A800029462046FFF7D1FF2089012189030843F9
:103A90002081F0BD8288244B643B1A40828082885A
:103AA0000A438280704702891F4B5B1D1A400281C6
:103AB00002890A430281704702891B4B743B1A40FA
:103AC000028102890A4302817047F0B50C46002149
:103AD000002500260189058B068C134F7F1D394078
:103AE0000F4627433946114F3D40FF2702373D43DC
:103AF0000D4F9E3F3E401F053F0C17433E43018143
:103B000005830684F0BD002904D0828880231A43EF
:103B1000828004E08288044B743B1A4082807047A4
:103B20005022115270470000F3FF0000FCFC00001F
:103B300010B50446B348844207D101214015FFF770
:103B4000CBF900216015FFF7C7F910BD10B50022B1
:103B5000C268AD4B1A400C7964030B6823438C6830
:103B60002343CC6823430C6923434C6923431A4302
:103B7000C26010BD0021016001718160C1600161FE
:103B800041617047002904D0826801231A43826092
:103B900003E0826802231A4382607047002A03D040
:103BA00003690B43036102E003698B4303617047C0
:103BB000002905D0C2680123DB031A43C26004E078
:103BC000C2680123DB039A43C2607047002905D015
:103BD000C26801239B031A43C26004E0C268012348
:103BE0009B039A43C2607047002905D0C268012335
:103BF000DB051A43C26004E0C2680123DB059A4377
:103C0000C26070470B0413430362704710B50A4645
:103C10000021C1681F24A4060B46A34319460B4686
:103C200013431946C16010BD002905D0C2680123A5
:103C30009B051A43C26004E0C26801239B059A43B6
:103C4000C2607047002807D0704989680122D205F8
:103C500011436E4A916006E06C4989680122D205E1
:103C600091436A4A91607047002807D06749896884
:103C7000012292051143654A916006E06349896813
:103C8000012292059143614A91607047002807D054
:103C90005E4989680122120611435C4A916006E080
:103CA0005A498968012212069143584A9160704727
:103CB00010B50B460021846A1C43846200BF0C4689
:103CC00014432146416110BD002905D0C26801237B
:103CD0005B031A43C26004E0C26801235B039A439A
:103CE000C2607047002905D0C26801231B041A4333
:103CF000C26004E0C26801231B049A43C26070479B
:103D0000002905D0C26801231B031A43C26004E0E6
:103D1000C26801231B039A43C260704730B5014655
:103D20000020002200238C680125ED072C438C60C5
:103D300000BF8C68E30FDB07521C0F242403A24250
:103D400001D0002BF5D18C68E40FE40701D1086C99
:103D500000E0002030BD816810221143816070476F
:103D6000816804221143816070470146086C80B26B
:103D70007047002904D0C26801231A43C26003E0DF
:103D8000C26852085200C2607047C26802239A4358
:103D9000C260C2680A43C2607047002A03D0436809
:103DA0000B43436002E043688B434360704730B588
:103DB00002460020002301242406214205D09468F5
:103DC00001252D06AC43234600E013681C460C4237
:103DD00001D0012000E0002030BD0160704710B527
:103DE00002460020002354680C40234614680C420D
:103DF00003D0002B01D0012000E0002010BD0160A5
:103E0000704700000024014003D2FFFF002701405B
:103E100010B50446F648844209D101218803FFF712
:103E20005BF8002101208003FFF756F80BE0F14812
:103E3000844208D101214804FFF75CF800210120E9
:103E40004004FFF757F810BDF0B589B005460E469F
:103E500000240020089000BF00BF286840084000F0
:103E600028606C6803210903204688430446B06833
:103E700004436C602C68E0480440F16870680843B3
:103E80003169084304432C60AC68032109022046D1
:103E90008843044670690443AC606846FEF702FF3D
:103EA000D348854202D10698089001E00298089014
:103EB00028680121C903084209D03268510019233A
:103EC000089A5A43104600F067FC074608E032683B
:103ED00091001923089A5A43104600F05DFC0746EA
:103EE0006421384600F058FC04012009642148434D
:103EF000381A079028680121C90308420AD0079997
:103F0000C90008463230642100F046FC4007400FEB
:103F1000044309E00799090108463230642100F0A2
:103F20003BFC0007000F0443AC8109B0F0BD4B21FE
:103F3000C9010160002141608160C1600C21016103
:103F400000214161704710B5002242680F2424020D
:103F50001346A3431A464C680B6823438C682343DB
:103F6000CC6823431A43426010BD002101604160C8
:103F70008160C1607047002904D0026801231A43A0
:103F8000026003E002685208520002607047002A93
:103F900003D003680B43036002E003688B430360B4
:103FA0007047002905D002680123DB031A43026031
:103FB00004E002680123DB039A4302607047002992
:103FC00005D082680123DB021A43826004E0826824
:103FD0000123DB029A4382607047002905D04268C2
:103FE0000123DB041A43426004E042680123DB043E
:103FF0009A4342607047002905D0426801239B0420
:104000001A43426004E0426801239B049A434260E1
:104010007047002A03D043680B43436002E04368C3
:104020008B4343607047002905D042680123DB03BE
:104030001A43426004E042680123DB039A43426072
:104040007047002905D042680123DB051A4342600E
:1040500004E042680123DB059A43426070474269ED
:10406000120E1206426142690A4342617047028A97
:10407000FF231B021A400282028A0A43028270470F
:10408000002904D0026802231A43026003E0026898
:1040900002239A4302607047826803231B059A43F8
:1040A000826082680A4382607047002905D04268B6
:1040B00001231B051A43426004E0426801231B05EB
:1040C0009A4342607047426803235B059A4342600B
:1040D00042680A4342607047C1690122D20391439A
:1040E000C1617047CA05D20D028570470146888CB0
:1040F000C005C00D704742681202120A4260426851
:104100000B061A4342607047002905D0026801235C
:104110005B031A43026004E0026801235B039A43D5
:104120000260704702680123DB029A430260026862
:104130000A4302607047426810239A434260426813
:104140000A4342607047426820239A4342604268B3
:104150000A4342607047002905D0426801239B034F
:104160001A43426004E0426801239B039A43426081
:104170007047002904D0826808231A43826003E054
:10418000826808239A4382607047028AD2B2028210
:10419000028A0B021A4302827047002904D0826807
:1041A00020231A43826003E0826820239A438260BE
:1041B0007047002904D0826810231A43826003E00C
:1041C000826810239A4382607047826807235B04E9
:1041D0009A43826082684B041A4382607047426946
:1041E0001202120A426142690B061A434261704789
:1041F0000038014000440040F3E9FFFF82680423D7
:104200009A43826082680A4382607047002904D022
:10421000826802231A43826003E0826802239A4381
:1042200082607047002905D0826801239B031A43EE
:10423000826004E0826801239B039A438260704796
:1042400082680123DB039A43826082680A438260AA
:10425000704702681F235B059A43026002684B05A2
:104260001A430260704702681F231B049A430260CE
:1042700002680B041A4302607047002A03D0836867
:104280000B43836002E083688B43836070478268DE
:1042900001235B039A43826082680A43826070470D
:1042A000F8B5034600240026009600250020184695
:1042B0000E04340ECEB200960127009EB7403D4654
:1042C000022C01D1001D02E0032C00D10830002A8D
:1042D00003D006682E43066002E00668AE4306601F
:1042E000F8BD002A03D0038B0B43038302E0038B4A
:1042F0008B4303837047826801231B039A438260C8
:1043000082680A438260704702460020D3690B42EC
:1043100001D0012000E0002070470162704770B5B5
:1043200002460B4600240021002500201E04350E05
:10433000D9B201268E403146012D02D11668314096
:1043400006E0022D02D15668314001E09668314006
:104350001C0C0126A6403446D6693440002903D0FF
:10436000002C01D0012000E0002070BD10B500231A
:1043700000220B0C01249C402246026210BD00006A
:1043800000218278002A27D0274A03231B02D21853
:1043900003789B109B00D15802789207D30EFF221E
:1043A0009A400B469343194642789207120E0378BF
:1043B0009B07DB0E9A4011431B4A03231B02D218B2
:1043C00003789B109B00D1500278D306DB0E0122AC
:1043D0009A40154B1A6007E00278D306DB0E0122E3
:1043E0009A40114B80331A607047002905D00F4A5C
:1043F000126902430D4B1A6104E00C4A12698243B0
:104400000A4B1A617047042806D109490969042238
:104410001143074A116105E00549096904229143E6
:10442000034A11617047000000E100E000ED00E088
:1044300000E000E00E49086070470D494860704791
:104440000B49886070470B48094908607047084964
:104450000861704708480649086070470146002017
:10446000034AD2680A4201D0012000E000207047D0
:1044700000300040AAAA0000CCCC00003A490969EB
:1044800004229143384A116111460969022291437D
:10449000354A1161C217520F1218D210334B1A70DD
:1044A000194609787D22D2005143314A11801146C4
:1044B00009887D22D20051432E4A116070472D4950
:1044C00009684143491E284A516101219161114601
:1044D000096901221143244A116100BF2249096977
:1044E000012212041142F9D01F4909694908490003
:1044F0001D4A116170471E4909884143491E1A4AE5
:104500005161012191611146096901221143164A45
:10451000116100BF14490969012212041142F9D046
:1045200011490969490849000F4A116170470F494B
:1045300009784143491E0C4A51610121916111469C
:10454000096901221143084A116100BF064909693E
:10455000012212041142F9D00349096949084900AE
:10456000014A11617047000000E000E046010020B0
:1045700044010020400100200748804707480047C9
:10458000FEE7FEE7FEE7FEE7FEE7FEE70448054933
:10459000054A064B7047000079460008B100000844
:1045A00070020020700800207004002070040020B9
:1045B000002100206F4A126801231B041A436D4B2F
:1045C0001A6000BF6B4A126801235B041A40104650
:1045D000491C002803D1052212039142F2D1654AF9
:1045E000126801235B041A4201D0012000E0002080
:1045F000012840D1604A126810231A435E4B1A60AA
:104600001A46126801231A435B4B1A60594A5268D2
:10461000584B5A601A4652685A601A4652683F23ED
:104620001B049A43534B5A601A46526811231B04C9
:104630001A43504B5A601A46126803061A434D4BF0
:104640001A6000BF4B4A126801235B061A42F9D078
:10465000484A526892089200464B5A601A4652687D
:1046600002231A43434B5A6000BF424A52680C234C
:104670001A40082AF9D1704710B53E4800683F49F2
:1046800008433C490860084640683D4908403949AC
:104690004860084640683B49084336494860084638
:1046A000C06A00090001C8620846006BFF2154314E
:1046B0008843304908630846406B4008400048631F
:1046C00000208860FFF774FF2A480068012109066E
:1046D00008432849086010BDF8B5002500240026CD
:1046E0000027244840680C2108400546002D04D0CE
:1046F000042D06D0082D2AD107E02348234908605D
:1047000029E023482149086025E01A4840680F2124
:1047100089040840044617484068012109040840FC
:104720000646A00C841C002E04D11948604317498A
:1047300008600BE00F48C06A0007000F471C3946AD
:10474000134800F029F860431049086003E00E4860
:104750000E49086000BF00BF06484068F0210840CD
:1047600000090C490D5C09480068E84007490860E9
:10477000F8BD0000001002400020024001000400CB
:104780000CB8FFF80A00280700127A004801002040
:1047900000093D004C010020002203098B422CD36C
:1047A000030A8B4211D300239C464EE003460B4381
:1047B0003CD4002243088B4231D303098B421CD3E3
:1047C000030A8B4201D394463FE0C3098B4201D3D5
:1047D000CB01C01A524183098B4201D38B01C01A0D
:1047E000524143098B4201D34B01C01A5241030984
:1047F0008B4201D30B01C01A5241C3088B4201D333
:10480000CB00C01A524183088B4201D38B00C01ADF
:10481000524143088B4201D34B00C01A5241411A06
:1048200000D201465241104670475DE0CA0F00D0E9
:104830004942031000D34042534000229C460309E2
:104840008B422DD3030A8B4212D3FC22890112BA68
:10485000030A8B420CD3890192118B4208D3890140
:1048600092118B4204D389013AD0921100E0890958
:10487000C3098B4201D3CB01C01A524183098B4239
:1048800001D38B01C01A524143098B4201D34B0122
:10489000C01A524103098B4201D30B01C01A524185
:1048A000C3088B4201D3CB00C01A524183088B420C
:1048B00001D38B00C01A5241D9D243088B4201D395
:1048C0004B00C01A5241411A00D201466346524180
:1048D0005B10104601D34042002B00D5494270477F
:1048E00063465B1000D3404201B50020C046C0467D
:1048F00002BD704770477047F0B50C46871A9C415F
:104900000D46861A9D4103D2C01BA141D2196341B5
:104910000D0D1F0DC44EEC1BAE435BD07E05760D16
:1049200052D02D05AC46A943DD020123ED0A1B053B
:104930001D4320231B1B24D41746E74000263818AC
:104940004E412946E14074189D40002128186141DC
:104950000C0D27D161449A4012D50023401C5941C7
:1049600052000DD140084000B04A4B00934207D39B
:1049700005204007081801D5511000E0AC4900207F
:10498000F0BD6B00002A00D001229A18203C1F23A2
:104990001B1B01D5002303E0E540002428186141DA
:1049A0000C0DD7D0012424050919C407CD074008F0
:1049B0004908E40F28436144002CD5D00024401C52
:1049C00061419A40D0D1CDE76A05520DD8D1C90FC7
:1049D000C907D4E7954D4E00002801D0012400E01E
:1049E000002434195F00002A01D0012600E00026CF
:1049F000BE19904FAC420BD8AE4209D8B44205D094
:104A0000BD00AC42BCD010461946F0BD9942FCD066
:104A100000203946F0BDF0B50C460F46811A9F4183
:104A20002546861A9D4106D20125ED076F40401AA2
:104A3000BC4152187B41210D1E0D8D1BAC467A4D99
:104A40008D437DD075056D0D7BD00D05AE46AC4315
:104A50001B031B0B784D52429D41202366469B1B36
:104A600013D31746F74038180026664164462F4690
:104A70002741F4199D4000262818664116D4714636
:104A800071189A4025D5012320E093182A466A41DF
:104A90005200002B00D0521C203E1E239B1B002BDB
:104AA00060DD3541EE1728186641E8D500187641DB
:104AB0005B1C9A4000D3401C4B05F3181524E340BF
:104AC0000FD3002B51D071467118D30FC01801D3EA
:104AD000491CF0BD0123DB079A42FAD1400840008F
:104AE000F0BD01225205B21801D1002853D0012394
:104AF000CC0ADB029943891E002A08D1020C03D09C
:104B0000020C0004103902E0024600202039002384
:104B1000550B05D112020823550B01D152010D236B
:104B2000550C01D112011B1DD50C01D192009B1C0B
:104B3000150D01D152005B1C2025EE1A054601E03F
:104B40002BE021E0F54015439840CA1AE1076918A7
:104B50001305C918002AC3DA032040070818C10F3B
:104B6000C9070FE071466118F0BDF107400808431E
:104B7000711071444A000CD001235B059A42F3D2B4
:104B8000C90FC9070020F0BD4905490D25D10020F6
:104B900001E00028F4D10021F0BD244D660000287A
:104BA00001D0012100E0002171185F00002A01D02E
:104BB000012600E00026BE191E4FA9420FD8AE42C2
:104BC0000DD8B14207D0BD00A94206D01946A802AF
:104BD00041401046F0BD9C4201D02146F0BD00206E
:104BE0003946F0BD30B40C465C4004D50124E407DE
:104BF000634030BC0FE730BC7EE630B40C465C400E
:104C000004D50124E407634030BC75E630BC02E7FC
:104C100030B40124E40761400D465D4001D430BC4E
:104C20006AE6634030BCF6E6FF0700000000E0FFE4
:104C30000000F07F0000F87F0000F0FFF0B5944620
:104C4000F74A0E091D091746164015400C46B24397
:104C50005C408BB0002A7DD0AF43FCD0002D7AD0D1
:104C6000002EFCD0E20F3243521BFF24A404121981
:104C70000792420DC902C70211436046420DDC0291
:104C80001443C2020120C007014304430191200CD8
:104C9000110C8C46010423468B430891614609049C
:104CA000E04D8A430991010A7D4449198039097808
:104CB00005464D4301266D18F605751B6943C90C61
:104CC000891C640B4C436418B5012D1B2C0C260465
:104CD000B5434D434C43290C611889090691F907E6
:104CE00001D00121C907039101997F08CC0727430F
:104CF0004C08069DE10B4D43290C65460E464D437D
:104D000046437D1BB44100950D465D432E0C2F0498
:104D10000D46019455430024AE4624042D0C344323
:104D20003D43264602957546039C2D04641B03945F
:104D300005D2029C3546641C00266E410294009FF9
:104D4000029D019C7D1BB4410904009501940591CD
:104D5000A40801E03EE16DE1069900266143090CDB
:104D60000C464443650BE70464464C43F604A646F0
:104D70002E43640B274335467446039EE404341BDC
:104D8000039402D200267F1C7541009E019CF61BF5
:104D9000AC4101940C465C43650FE70000960C465D
:104DA00000265443F600A6462E43640F274335469B
:104DB0007446039EE400341B039402D200267F1C39
:104DC0007541009E019CF61BAC41B509A4062C431D
:104DD000039DB706AD092F43039DC900AD0603959A
:104DE000059D691805910699E50B6943090C65460F
:104DF0000E464D4346437D1BB44100950D465D4331
:104E00002E0C2F040D4655430194AE460024240475
:104E10002D0C34433D43264602957446039D2404DD
:104E20002C1B039405D2029C3546641C00266E415F
:104E30000294009F029D019C7D1BB44101948C054E
:104E400000950494059C890A61180591019C0699B6
:104E5000A4086143090C0C4644430020650BC004C0
:104E60002843E50464464C43660B074603982E43EB
:104E7000E404001B039002D20020761C4741009CF2
:104E80000198A41BB84101900846A4465843002449
:104E9000450FE6002E430D46C7005543680F3443C7
:104EA000039E3843ED00751B02D20026401C74415E
:104EB0006746019E381AA6418409B7062743AC0904
:104EC000800620434C02AE06049984466418059D72
:104ED0000020684105900020089900906046194321
:104EE0000018099B7F411343F20F3D4610437700A2
:104EF0002A46C61A8A41954203D9012000903046BD
:104F00001546EE0F00186D41B646FA0F0026024313
:104F1000304628437D000395009D6F00D61A054654
:104F2000B4468D417646002E01D1A84202D97F1C9D
:104F300062462846C50F9618039AAC464041D50FE5
:104F40000246354378001646EB1A8E4119466346F1
:104F5000002B01D1B24202D9401C0D4632462A43F1
:104F600001D001210C434002059A00210019514152
:104F70000222002902DB012200184941079B4C054F
:104F80001B14D318C90A1B05CB1807994205C00A80
:104F9000C90720435940002A09D00124A24006D362
:104FA0000024401C6141002A01D1400840001E4AF3
:104FB000002B04DB1C46144201D09A4325D1012268
:104FC0000798920690423DDC032040070818C10F65
:104FD000C9073EE00E4607184E41144D7A42B541CE
:104FE0001BD3624696181D465D41104A7642AA417F
:104FF00013D3012252054D00D5420BD15C00D4429F
:105000000BD04B4003D5920211430BB0F0BD4900C9
:105010004908FAE7E10FC9071BE000200449F4E75B
:105020000000FF078C1100000000F07F0000E0FF8F
:105030000000F87F0D48014201D0214605E00342FF
:10504000EBD0E7E705204007091809480143C012E3
:1050500041400020D9E75940504010B54B404240F4
:1050600059405040FFF7EAFD10BD00000000F07FFE
:10507000FFFFFF7F30B50346CA02400D1043154DB8
:10508000154C0A1502D02043002A06DBAA1A002A72
:1050900012DDD040FF2A0BDC30BD5205520D01D18C
:1050A00040004008AA1A07D4D0404042FF2A01DD40
:1050B000002030BD0028FCDD4A00002B01D001207B
:1050C00000E000201018054A9042F1D8C817C043EC
:1050D000604030BD1E040000000000800000E0FFC2
:1050E0001F22030C02D10F22000402D0030E02D0B3
:1050F00003E000217047083A0002030F01D1121F9C
:105100000001830F01D1921E8000002801DB521E96
:105110004000120551184205C01241181046704750
:10512000C10FC90700D04042012292071143D7E7BF
:1051300001218907D4E70000F0B59E4C0D092646F1
:10514000AC46AE430D465D4089B0002E7ED01E09B0
:105150002746B743FAD067462740ED0F3D43264028
:1051600075D024012142FBD07419FF25AD04641BC6
:105170000494CC02D90201231B05E40AC90A1C438A
:1051800019432401030F1C430B010501110F0B43AD
:10519000A00B81032D0916018C43A90B8A039543AB
:1051A0009A0B9703BB4336099C46B30B9F03BE4340
:1051B0000F465F4303972F46774302964E19BE462C
:1051C0000796029FDF197E430597039FF71B7646DC
:1051D000BE1B77463F0100970196039FB60BF61959
:1051E000B646019E009FB604BF1902D37646761CD0
:1051F000B64676467600002F01D001273E4367462B
:105200007D430695029D27466F4300977F00069DCC
:10521000BE196F00BD1966469619079FAE467743C3
:10522000069D03967D1B01950619059D009F7543FC
:105230000296EE1B019D51436D1A07465F43F31B17
:10524000019500937546EB06734601E092E08EE00F
:1052500003D05B0901252B4300E05B09002635469E
:10526000B6460E0A2D0609063543CB18764675411B
:10527000AE4600213D0A09063E062943F61875464A
:105280006941B646019B00269D0DB7022F439B0244
:1052900076469B194F41009900258E0DAD0289027B
:1052A000C91835437D41504362465443039B029ADB
:1052B0005A43121A161B0022B70E9301B601751934
:1052C0003B435341070B1205000545193A435A4128
:1052D00000200306270A20063B43441814266B418E
:1052E000AB4200D2521C01204002824203D3152659
:1052F0000221C94301E00321C9432020851BAA40A4
:105300001F46AF40F34013432046049AF040121466
:10531000891809055A1804993843C9075140AC4007
:1053200009D001239C4006D30023401C5941002C86
:1053300001D140084000204B002A03DB1A4201D073
:105340008B4312D1012204989206904207DB05207C
:105350004007091819480143C012414004E00320E6
:1053600040070818C10FC907002009B0F0BD002090
:10537000E907FAE706180C464C4111487642A0416D
:1053800014D394181A465A410D48644290410DD3E3
:10539000012049004005814208D35900814205D3CC
:1053A000E90F054AC90700201143DEE7002005493F
:1053B000DBE700000000FF070000F07FFFFFFF7F3A
:1053C0000000E0FF0000F87F10B500F03BF8006837
:1053D00010BD10B5044600F035F8046010BD0000A3
:1053E00070B505464800440D134B0020002C0AD030
:1053F000634008D09A4206DA6642B24203DD1205E3
:105400004019514170BDCE0FF6070020002C07D087
:10541000002B07D03146002AF4DB084A114370BD47
:10542000314670BD28460A03104302D000200449CB
:1054300070BD284670BD0000FF0700000000F07F2F
:105440000000F87F004870470C020020F8B51E4CA1
:105450004E00069DA6420AD8A64201D1002806D1D8
:105460005E00A64203D8A6420AD1002A08D00D2425
:105470002404254223D02946002000F050F8F8BD2E
:105480000C461C4305D4994200D19042EFF30080B2
:10549000F8BD09242407E5008B4206D0EFF3008015
:1054A000A043591A06D2284304E0101AEFF30080F3
:1054B00003D3A04380F30088F8BDA043F3E7009531
:1054C00000F044F8F8BD00000000E0FF004870471D
:1054D0000C0200207546FFF7F9FFAE46050069464D
:1054E0005346C008C000854618B020B5FFF74EF8F7
:1054F00060BC00274908B6460026C0C5C0C5C0C567
:10550000C0C5C0C5C0C5C0C5C0C5403D49008D4669
:1055100070470446C046C0462046FAF708FECA0255
:1055200011D54A03520F04D0C803C043012188405B
:10553000704703221207EFF30081080100091043AE
:1055400080F30088704700207047000010B50020ED
:105550000249029A00F004F810BD00000000F87F34
:1055600010B50C461107090F092904D00A290AD0E1
:1055700008290CD104E011460820FFF7D0FF06E00F
:10558000510606D501E0510601D50120C00721468C
:1055900010BDD1060AD5010109090022CB08540724
:1055A0004907000E1C430006044309E0410F200296
:1055B0004907000A0143200E00061D22D141014384
:1055C0000846E4E701491820ABBEFEE726000200CA
:1055D000704770B58C180578401C6B075B0F01D1C4
:1055E0000378401C2A1106D10278401C03E006789B
:1055F000401C0E70491C5B1EF9D12B0705D40023FB
:10560000521E0DD40B70491CFAE70378401CCB1ACC
:10561000921C03E01D785B1C0D70491C521EF9D5CD
:10562000A142D8D3002070BD30B47446641E2578E2
:10563000641CAB4204D3635D5B00E31830BC1847C5
:105640001D46F8E74900CA02104300D004204A0D65
:1056500001D001221043054A490D914201D1022196
:105660000843012800D1052070470000FF07000013
:10567000F8B504464F1EC8000838211815461E46C6
:10568000086849683A4606239A4310D02A463346AA
:10569000FFF752FD3A46D200083AA3181A687F1E57
:1056A0005B68FFF79FFA06223B469343EED1022F39
:1056B00023D0042F11D0062F2FD12A463346FFF7CF
:1056C0003BFDE36AA26AFFF78DFA2A463346FFF7ED
:1056D00033FD636A226AFFF785FA2A463346FFF7ED
:1056E0002BFDE369A269FFF77DFA2A463346FFF7EF
:1056F00023FD63692269FFF775FA2A463346FFF7EF
:105700001BFDE368A268FFF76DFA2A463346FFF7F0
:1057100013FD63682268FFF765FAF8BD034A10B508
:1057200000201107FFF75CFE10BD000001FDFFFF28
:10573000F0B54E00874BCF0F760887B005460C4674
:105740009E4230D3844886420FD33003000B284357
:1057500002D00122284614E0002F03D00020014689
:1057600007B0F0BD284607B0F0BD7C4A284600F0DF
:105770002FFB0AD20220FFF72CFE0721784A0020D7
:105780000907FFF72DFE07B0F0BD764A764B284695
:10579000214600F0EBFA06D20220FFF71AFEFFF7CF
:1057A000BDFF07B0F0BD714886424AD93046704906
:1057B000E20FD600884215D26E48784480194368BB
:1057C000026828462146FFF718FA02906A480391BA
:1057D000784480194168006800900120C01B019145
:1057E000C61B25E0654A664B28462146FFF7A4FC08
:1057F000644A7A4493191A685B68FFF7F3F9FFF774
:1058000039FC0646FFF78CFC07465F4A5F4B009168
:10581000FFF792FC2A462346FFF7FAF9039102901C
:105820005B4A5C4B38460099FFF786FC019100907B
:10583000019B009A03990298FFF7DFF905460C4691
:1058400017E05548864213D2544A554B2846214604
:10585000FFF7C8F9534E0022334600F0B9FA07D2D9
:105860000022334628462146FFF7BCF907B0F0BDB9
:1058700000262A46234610461946FFF75DFC0746D8
:10588000024649480B46049105217844FFF7F0FE93
:105890003A46049BFFF750FC2A462346FFF7B8F927
:1058A0000691012189070746002E23D002460020D9
:1058B000069BFFF7A2F9059104903A462846214637
:1058C000069BFFF739FC059B049AFFF7B7F9019B8C
:1058D000009AFFF79DF9039B029AFFF78EF90022C9
:1058E000304BFFF795F9314A96421EDB3205891895
:1058F00007B0F0BD0B4600220699FFF77EF9064679
:1059000000913A4628462146069BFFF715FC324691
:10591000009BFFF793F92A462346FFF76EF9002212
:10592000204BFFF775F907B0F0BD7D233205DB058D
:10593000D21889181E4AFFF753FD04460D46FFF79B
:1059400081FE042801D1FFF7E9FE2046294607B071
:10595000F0BD0000422E86400000F07FEF39FAFED5
:105960000103000051302DD5104987C0422ED63F8B
:10597000B2A2F03F0A07000004070000FE822B6578
:105980004715F73FC20600000000E0FE422EE63F4A
:10599000763C7935EF39EA3D0000303E9C75008851
:1059A0003CE4377E0000F03F5A06000003FCFFFF96
:1059B00018FCFFFFF0B5C34B00248FB0994209DA01
:1059C0004A0052089A4205D8BF4D4B00AB4206D15F
:1059D000002804D00122FFF703FD0FB0F0BD012520
:1059E0002D05A9421BDA02430CD0002912DA01204E
:1059F000FFF7EFFC0022134610461146FFF71EF991
:105A00000FB0F0BD0220FFF7E4FC00221346104661
:105A1000AE49F3E73524E4433622FFF7E1FC0A15EB
:105A2000AB4B1219D4180A03120BAA49AA4B5618E9
:105A30002E403146594011430B92321512190C92E7
:105A40000022FFF7DAF80B9A0446921C1003A34ECB
:105A5000000B0D467E44032860D2204673683268EE
:105A600000F052F91CD10C98002815D0FFF758FB14
:105A700005460E469A4A9B4BFFF75EFB07460C46CF
:105A8000994A9A4B28463146FFF756FB3A46234639
:105A9000FFF7A8F80FB0F0BD716830680FB0F0BD27
:105AA000934A944B20462946FFF746FB0022924B2F
:105AB000FFF7AEF806460F4622462B46104619461B
:105AC000FFF73AFB32463B46FFF736FB06460C989B
:105AD0000F4600281DD0FFF723FB814A814B03911D
